:020000041000EA
:1000000000B5324B212058609868022188439860DF
:10001000D860186158612E4B002199600421596104
:100020000121F02299502B49196001219960352056
:1000300000F044F80222904214D00621196600F024
:1000400034F8196E01211966002018661A6600F04E
:100050002CF8196E196E196E052000F02FF8012189
:100060000842F9D1002199601B49196000215960AB
:100070001A491B48016001219960EB211966A021F2
:10008000196600F012F800219960164914480160C1
:100090000121996001BC002800D000471248134993
:1000A000086003C880F30888084703B5996A0420EC
:1000B0000142FBD001200142F8D103BD02B5186610
:1000C0001866FFF7F2FF186E186E02BD00000240BE
:1000D000000000180000070000035F00212200005C
:1000E000F4000018222000A00001001008ED00E03C
:1000F000000000000000000000000000070B8FD58A
:1001000048240020E518001019490010A11800101B
:1001100000000000000000000000000000000000DF
:10012000000000000000000000000000E5190010C1
:100130000000000000000000751900108D24001060
:10014000311B0010311B0010311B0010311B00103F
:10015000311B0010311B0010311B0010311B00102F
:10016000311B0010311B0010311B0010311B00101F
:10017000311B0010311B0010311B0010311B00100F
:10018000311B0010311B0010311B0010311B0010FF
:10019000311B0010311B0010311B0010311B0010EF
:0801A000311B0010311B00109F
:1001A80002B4714649084900095C49008E4402BC02
:1001B8007047C046002934D00123002210B4884279
:1001C8002CD301242407A14204D2814202D209017E
:1001D8001B01F8E7E400A14204D2814202D249009F
:1001E8005B00F8E7884201D3401A1A434C08A04242
:1001F80002D3001B5C0822438C08A04202D3001BD8
:100208009C082243CC08A04202D3001BDC082243EE
:10021800002803D01B0901D00909E3E7100010BC2E
:10022800704701B5002000F05FF802BD0029F8D042
:1002380003B5FFF7C1FF0EBC4243891A1847C046F1
:10024800002941D010B404004C40A44601230022E8
:10025800002900D54942002800D5404288422CD3C5
:1002680001242407A14204D2814202D209011B01C0
:10027800F8E7E400A14204D2814202D249005B00BF
:10028800F8E7884201D3401A1A434C08A04202D327
:10029800001B5C0822438C08A04202D3001B9C0868
:1002A8002243CC08A04202D3001BDC0822430028CA
:1002B80003D01B0901D00909E3E710006446002CAC
:1002C80000D5404210BC704701B5002000F00CF882
:1002D80002BDC0460029F7D003B5FFF7B3FF0EBC37
:1002E8004243891A1847C0467047C0461C2101235B
:1002F8001B04984201D3000C10391B0A984201D301
:10030800000A08391B09984201D30009043902A2DE
:10031800105C40187047C046040302020101010145
:100328000000000000000000002B11D1002A0FD1AE
:10033800002900D1002802D00021C943080007B4D1
:10034800024802A14018029003BDC0469DFFFFFF6E
:1003580003B4684601B5029800F04CF8019B9E462C
:1003680002B00CBC7047C046D0400B00D1409C4640
:10037800203AD3401843524263469340184370478B
:100388009140030090409C46203A934019435242C2
:100398006346D3401943704710B5002903D1FFF7CE
:1003A800A5FF203002E00800FFF7A0FF10BDC046FF
:1003B800F7B5040C0D0091B20F0061438C4606009E
:1003C800019383B2100C5F43444358433B0C604491
:1003D8001B18994202D98021490264180199554392
:1003E8007143180C04191B04BFB24919D81909190B
:1003F80003B0F0BDF0B506000F0015001C0085B075
:100408008B4263D801D1824260D821002800FFF7CF
:10041800C3FF390000903000FFF7BEFF009B2100AA
:100428001B1A1A0028000393FFF7AAFF00900191F6
:10043800B94245D801D1B04242D8009B019C012065
:100448000021039AF61AA741FFF79AFF04000D004E
:10045800039B002B2BD0019B009ADB075008184305
:10046800019B5908039B9C46B9422CD801D1B04244
:1004780029D832003B00121A8B41012692185B41A1
:100488000027B6185F4101235B429C446346002B5A
:10049800EAD130003900039AFFF766FF039AA419DE
:1004A8007D4106000F00FFF76BFF241A8D410A9B60
:1004B800002B01D01E605F602000290005B0F0BD50
:1004C80000240025C4E7B6197F41DCE70024002595
:1004D800EDE70023C25C0133002AFBD1581E7047A8
:1004E80037B50020019000F007FC00281AD1FA2443
:1004F8000025A400019B002B07D00B4803F0FDFE4C
:1005080000210A4803F09CFAF7E7094883681B6D45
:10051800002B02D0042101AA98472000290003F0EB
:100528008FFAE7E737BDC0461058001050C30000E7
:10053800BC55001010B5024B1B68984710BDC0464B
:10054800B0000020014B18607047C046B000002082
:1005580030B585B004000D0010220021684604F073
:10056800D0FF6A4602239370044B2A002100684694
:10057800019303F087FC05B030BDC0463D0500106F
:10058800F7B504000D001E00019203F071FA030094
:1005980004F0C0FF054F32003B5001992800A047E6
:1005A80004F0B8FF385801F0ADF9C0460800000063
:1005B800F7B5FF270D4B0E4C5E6A0E4B0194019C5C
:1005C800A34202D3862040420CE05D68B5420AD3BC
:1005D8001C69002C07D0AD78AC4685883D40AC45F9
:1005E80001D1A047FEBD2433E9E7C046300600200C
:1005F8008C03002068030020F8B505000E001700E2
:10060800114C124B9C4202D38620404212E0104B00
:1006180062685B6A9A4215D3A369002B12D091785D
:10062800FF208C46A98801408C4504D13A0031004E
:1006380028009847F8BD5279012A03D13A003100C1
:10064800280098472434DCE7680300208C03002046
:1006580030060020F8B505000E001700094C0A4BBB
:100668009C4202D3862040420AE06369002B01D1F4
:100678002434F4E73A003100280098470028F7D1DD
:10068800F8BDC046680300208C03002010B50400A4
:1006980004F0DEF90300783301D0002807D12000E8
:1006A80003F0C4FF024A136883430020136010BD9F
:1006B800F406002010B508220021024804F021FFAA
:1006C80010BDC046EB06002030B50A4B0A4CA342C9
:1006D80001D3002030BD1A7F196AD2005218914206
:1006E80001D12433F3E708310D1F2D788542F6D167
:1006F8000120EFE7680300208C03002010B5084CA8
:1007080023785B069B0F0A339B001B59181E05D0E4
:100718002000044A04499847C043C00F10BDC04692
:10072800300600203806002040060020F0B585B0CD
:1007380004000191042813D0012828D1204B1B78EC
:10074800002B24D000F0CAFD1E4E1F4B9E421BD228
:100758000025336A0293337FAB4204D82436F4E78A
:10076800FFF7A8FFEAE7029BEF00DF19387904F0EA
:100778006FF90390387903F059FF144A13688343DB
:100788001360039B002B0FDA00220D4B1A700D4DDE
:100798000D4B9D420BD30E4B1B6A002B02D0200041
:1007A8000199984705B0F0BD0135EDB2D3E7EB6884
:1007B800002B03D021002800019A98472435E7E749
:1007C800E9060020680300208C030020F4060020BE
:1007D80030060020F7B56B46C4B2DD1D0E002C7044
:1007E800630609D02000FFF76FFF002811D0002012
:1007F8000C4B1B7883420CD020000B4F002E09D0E5
:1008080001F032FCFB69002B02D029000820984730
:100818000120FEBD04F0F8F8FB69002BF8D0290090
:100828000920F4E7EA0600203006002073B56B467D
:1008380086781E70437902791B0213436A465380F7
:100848000322C378300013406A46137103F0EEFEAA
:10085800174B05001B68174C03420CD0300000F002
:1008680023FD3000FFF712FF04F084FC002802D1BA
:10087800963004F0A5FD684604F0B6F80300783316
:1008880003D0002801D0002076BD6B46187801F00F
:1008980013FC0300783301D00028F4D12300012091
:1008A800B933C434187023682B432360ECE7C0467F
:1008B800F406002030060020F0B5AB4F0600BB69F7
:1008C8000C00150085B0002B18D13178C806C00E71
:1008D800012800D178E0022800D1E6E0002820D1E4
:1008E8002A6873787F2931D9062B0CD0082B28D099
:1008F800002B16D113705370023311E1984700286A
:10090800E3D100200FE071880A0A131FD6B2012B29
:1009180007D9072A05D8CBB201937B6A1F78002F25
:1009280003D11620404205B0F0BD5978B14204D138
:100938000199814200D1EBE00130DB19EEE71B7829
:10094800EEE0BA373B7813700123E9E0052B11D0AC
:10095800092BE6D173887C6A002B32D1FFF7AAFEF7
:1009680039007388BA310B70FB69002BC9D003209A
:100978009847C6E7B07801F069FB0028C1D0D0E7F6
:100988006378042B09D0052B11D0022B07D1657988
:100998007388AB4203D1012001E0E3780193237807
:1009A800E4182378002BEBD10028BAD0D6E7738857
:1009B800AB42F4D1019B002BF1D12000FFF736FFA9
:1009C800EDE7FF250195ECE72B6802933B00BA336E
:1009D8001B78002BA5D0B388DAB294467A6A0192C4
:1009E8001578002D9DD050780390022803D11079F6
:1009F800604500D996E05219F2E7029B1A705A70C6
:100A0800039B8DE001998A18019295E00B2A00D08A
:100A180087E70024FF25039402950AE0019B5B7891
:100A2800042B14D0052B28D0019B019A1B78D318CE
:100A38000193019B1B78002BF0D1FB69002B02D09E
:100A4800072003999847002C00D05AE769E7019BD3
:100A5800DB780293019B9D78B3889D42E4D173882B
:100A6800029A9A42E0D1019B00240393072DDBD818
:100A78007B19BB331A700134D6E7B388AB42D3D1A4
:100A8800B378029A93420BD0019B9C78200000F027
:100A98000BFC2000FFF7FAFD43425841C4B2C3E7FC
:100AA8000198FFF7C3FE0400BEE773787F2918D9C1
:100AB800002B00D035E736792D6873060AD0300050
:100AC800FFF702FE002800D12BE7BA373B78002B4E
:100AD80000D126E72900300003F0ABFF00236B703C
:100AE8000AE7012B09D0032B00D01AE77388002BE3
:100AF80000D016E70121B08804E07188002900D0F1
:100B08000FE7B088FFF766FE002800D0F9E608E78F
:100B18002B60022A00D012E79A78DB781B02134375
:100B28002360EEE672787F2900D86FE7002A00D1AB
:100B380063E70A2A00D0F4E6019A1278002A00D165
:100B4800EFE601994978042900D05BE70199897893
:100B58008B4200D056E70022072B02D8FB18BB3384
:100B68001A78029B1A70EFE63006002013B5154C70
:100B7800237D002B1ED1E26801AB8020A168019281
:100B880003F065FD019AA3689B18A360E3689B1AAC
:100B9800E3600ED1002A0CD02069E388834208DD87
:100BA8002300C8331978FFF795FB002901D10123E9
:100BB800237513BD002180200B000A00217501F068
:100BC800A5FAF6E730060020002330B585B00D0001
:100BD8000193984257D1994236D10B000822280038
:100BE80002A903F04DFF002804DA802001F03CFA46
:100BF80005B030BD6B46294C029ADB892260039A06
:100C080025756260264A2561A2606A46127AE56007
:100C180052B2002A0BDB802B04D9802001F024FA81
:100C28000020E3E7002B02D02361E360E0E7FFF751
:100C380065FD0028D9D02269E388934200DD1300BE
:100C4800E360FFF793FFD3E7144C01ABE268A168B8
:100C5800002A05DC020003F013FF0028C8DAC4E705
:100C680003F00EFF0028D8DB019AA3689B18A36045
:100C7800E3689B1AE360BBD1094BA360FFF73EFD15
:100C88000028DED1B1E78028B2D1044BDA68002A07
:100C9800D7D11B7D002BD4D1AAE7C046300600204F
:100CA80068060020054B064A58629A62054A0020E9
:100CB800DA62054A1A63054A9A61704730060020CD
:100CC800C1080010B90500105D06001001060010EB
:100CD80010B5084B1C78002C07D100F0D7F8002875
:100CE80006D0FFF7DFFF200010BD78204042FBE769
:100CF8000120FBE7E8060020F0B5414D04006F6ACB
:100D080085B0404B0093009801225242D31702F05D
:100D18008FF92B00B8331E78002E00D068E03A48CF
:100D28002C62E86101F08CF901F020F9041E2CDB3B
:100D380000F0F4FA041E28DB7B78012B5BD1FB79E9
:100D4800002B58D02A00C832137002AA1000538012
:100D58001671167003F048FE041E16DB802702ABDE
:100D680018001F7003F040FE041E0EDB274B3000F6
:100D78001900019303F00EFE041E06DB38000199EA
:100D880003F008FE224E041E0BDA009802F0C8F9A0
:100D9800200005B0F0BD0024376A337FA3421CD879
:100DA80024361C4B9E42F6D3002001F085F9041E20
:100DB800EBDB2E000127C436336880203B433360C9
:100DC80001F07AF9041EE0DB802332685B021343EA
:100DD800B835002433602F70D7E7E300FB18187983
:100DE800196803F0D7FD002807D10134E4B2D4E72D
:100DF80078246442C9E71624FBE70124F9E7C046D2
:100E0800300600206002002035070010D10B0010CA
:100E1800680300208C030020F0B58BB0112219491B
:100E280005A804F065FB1022002101A804F069FB65
:100E3800154C12220021200004F063FB102101A8A8
:100E480003F042FF00281ADD082800DA08200838D5
:100E580001AB1B180F2021000022844614276D4681
:100E6800985CED190609AE5D654628406D46ED199A
:100E7800285C01320E7048700231082AEED1200039
:100E88000BB0F0BD425800102C0F0020F0B56F4C8D
:100E980089B06F4B019300231D00039302930093C5
:100EA8002378002B05D16B4B02349C42F1D1674863
:100EB80036E0607805281ED8FFF772F99003C590D0
:100EC800203E002206AB1A70402306A908004B807A
:100ED8000A7103F07AFD00280AD0082306AA100038
:100EE800538003F072FD002802D0002206AB5A801E
:100EF80006AB5B88E3712378E418D1E7E378002B2D
:100F0800F9D1A378002B0DD0029B0133DBB20293F9
:100F1800F1E76A68944208D024359D42F9D300204D
:100F280009B0F0BD4C4D4D4BF7E7AB68002BEBD04B
:100F3800200002999847E7E7002DF0D000272B7F83
:100F48009F42ECD22A6AFB00D3180493A2781B793B
:100F58009A4201D00137F2E701260322F3B2059342
:100F6800E378134006AA1371637922791B021343AD
:100F780006AA5380A3787F2B22D93300012210338D
:100F88009A401300019A1A4224D18023059A1343E8
:100F980006AA1000137003F018FD00281AD106AB3A
:100FA8001B78049AA37013715BB2002B0FDA01232C
:100FB800059F1037FFB2BB40019A1A4301929AE786
:100FC8000123B340019A1A4204D1F3B2E0E70123A6
:100FD800B340F1E70136102EBFD1BBE7039B032BCB
:100FE80019D1FFF719FF061E08D0FFF772FA0200A1
:100FF800102803D13100A01C04F07AFA2378E218F3
:101008005B08E318911E121B032A15D5039B0133B5
:10101800DBB203936FE7039B002BEFD1009B002B00
:1010280000D17CE7009AE31A93709BB21B0AD37035
:101038001300029A1A71E9E700224A701A78013BF4
:101048000A700A00DEE7009455E7C0469C020020BB
:101058000100010067030020680300208C030020C2
:10106800094A0023110010B51478844205D1546848
:10107800002C02D09B01C81810BD01334032042B4C
:10108800F2D10020F8E7C046FC060020F0B50400C5
:101098002C3C63680500267885B0103311D1E36BCA
:1010A800E268990734D5002A1DD11900043211408D
:1010B800134204D10B000A00300003F0C8FA0023E1
:1010C8006360636810330CD0236967690093A36970
:1010D800019304F04FF800283DD02900244804F07B
:1010E800BCF805B0F0BD3000A16803AB03F0AFFA5F
:1010F800002802D016235B42E2E7039AA3689B18F4
:10110800A360E3689B1AE36023699B182361D8E70F
:101118003000A16803AB01F04FF80028EAD1039F23
:10112800A368DB19A360E368DB1BE3602369DB19B1
:101138002361002FC3D0300003F0B5FC0100380054
:10114800FFF774F80029BAD1E368002BB7D0300054
:1011580001F07AF8B5E760612800103802F01AF853
:10116800002FBED03000019A0099B847B9E7C046B1
:10117800900300204B1E73B506000D00012B0FD8FD
:10118800FFF76EFF041E0CD1012D09D1694601AB92
:1011980001223000033101F00FF8019B002BF5D13B
:1011A80073BD03F0E7FF21002C31002801D0012D89
:1011B80003D10800FFF76AFFF2E7024804F04DF890
:1011C800EEE7C04690030020F0B587B00600049112
:1011D8000292039303F07FFA00285AD1EFF31083A9
:1011E80072B6070005932C4B019300220023019847
:1011F80001F0F2FF00280AD1284BBA019C18656853
:101208002900103114D1019801F0C4FF07E0019BB7
:10121800013740330193042FE7D10C256D42059B1C
:10122800002B02D162B6BFF36F8F280007B0F0BD64
:10123800D654049B2061A360029B3000E3600C9BA2
:101248006361039BE3630D9BA36110235B426360AF
:1012580003F029FC00280CD0300003F024FC010026
:101268000298FEF7E3FF002903D00423E26B13433F
:10127800E363039B9B0707D5094BB9010948C918C4
:1012880003F0EBFF0025CAE7300000F0DDFF0500A2
:10129800C5E710256D42C8E718070020FC060020A6
:1012A800280700209003002010B5EFF3108472B6D1
:1012B800FFF7D6FE011E09D04368103306D18C23F0
:1012C8005B4243602C31044803F0C7FF002C02D175
:1012D80062B6BFF36F8F10BD9003002070B5002574
:1012E8000C4CEFF3108672B66368103307D18C2369
:1012F80021005B42084863602C3103F0AEFF002EEA
:1013080002D162B6BFF36F8F01354034042DE8D1A6
:1013180070BDC046FC0600209003002070B5002573
:101328000126084C2000084903F07FFF2000320006
:1013380031001038013503F03CFF4034042DF1D161
:10134800002070BD2807002095100010054B0100F3
:1013580010B5180003F0AAF9002802D001230738B5
:10136800037010BDFC07002010B5016901220B00B5
:101378004B331A700B68002B08D00B0049331B78CD
:10138800002B03D00248083103F067FF10BDC046A8
:101398009003002010B5036901211A004A32117028
:1013A8001A68002A08D0190048331B780831002B26
:1013B80002D0024803F051FF10BDC0469003002040
:1013C80070B5046923009E331B78181E14D02300BF
:1013D80000209F331B7883420ED1230048331870B6
:1013E800986C03F0B2F8210005000022002303489E
:1013F800183102F04FF8280070BDC0469003002055
:1014080073B56B460469DE1D230031709E331B786B
:10141800002B17D023009F331B78002B12D12200FA
:10142800250048321370903531000122286803F0F6
:101438008CF8011E07D021000A2200230948183120
:1014480002F028F873BD0122286803F0CEF80028BE
:10145800F8D001223100286803F077F80028EAD193
:10146800F0E7C046900300200300F0B58C331B68FA
:1014780005005B6885B01B6A1E7D300003F02BF900
:10148800071E1ED18022A86FD20003A903F07CF8A2
:10149800002816D02B0030331F703F2303405A42D8
:1014A8005341C41A2B00183B0193074B039900932F
:1014B800220002233000FFF787FE2100A86F03F007
:1014C8007FF805B0F0BDC0466515001070B5060080
:1014D8000D0001791248140003F0DBF800281BD036
:1014E800327873787F2A10D8202B03D0222B08D08B
:1014F800862012E007222168103803F0F9FF002047
:1015080070BD738809380370F9E7212BF0D11038C2
:101518001A3B20602B60F2E713204042F0E7C046F8
:10152800FC070020030070B50025040048331D8027
:1015380007220949943003F0DBFF230020009C3385
:101548001D70013B1D70033329001D809D704022D2
:101558004C3003F0D6FF70BDC8560010130010B50C
:1015680011001400012248331A7023680831002B37
:1015780007D023004A331B78002B02D0084803F019
:101588006CFE230090331B689A681B699A4206D048
:101598002100002200230248183101F07BFF10BD12
:1015A8009003002010B5046900222300A4331860BA
:1015B8005A600B4A0433516800290DD153601360F7
:1015C80020000849083003F030FE20000649183092
:1015D80003F04FFE002010BD0B605360F0E7C046DB
:1015E800FC0700200F4700107114001030B50B00E5
:1015F8000E4985B0019180218902029101A90B81D0
:101608000023046942689D342370126A084D1079DA
:101618000A2203F01CF82378002B05D10120013D94
:1016280001F0B0FA002DF6D105B030BDA1200000C0
:10163800A1860100F7B51600050014004C360029F4
:1016480023DD17008C370A003868310002F07DFF6F
:101658002300012249331A702368002B09D0230084
:101668004B331B78002B04D021000D48083103F0C0
:10167800F4FD3B685A685969DB69521A9B1A3F2B7B
:1016880003D80123A0342370F7BD064B40220093F2
:101698003100012328000194FFF796FDF4E7C046C6
:1016A800900300203D160010204B70B50D0001007E
:1016B800180002F0E3FF041E29D006000368681E24
:1016C8005B68A43E052822D8FEF76AFD2221032282
:1016D800262AA51F2978002906D11B6A3200187B03
:1016E800FFF7A8FF01232B70230021005C3B1A7829
:1016F8009C39002A0BD101321A703368002B06D0AE
:101708005A3C2378002B02D0094803F0A6FD70BD8F
:101718003000FFF707FFFAE70123053C2370F6E7DF
:10172800053C2378002BF2D00023F7E7FC070020C4
:101738009003002037B5012300258022064C074975
:10174800200000955B42D20001F066FE20000449AB
:1017580003F016FD28003EBD90030020480F00202E
:101768005D58001030BFFDE7F0B5144B144C85B040
:10177800070018190391013821000193FEF71AFD9B
:10178800104E114D4443701929000138FEF712FD1F
:1017980045432B190293029A039B0C499D1A280072
:1017A800019A03F0A5FE28193200002103F0A9FED2
:1017B8000298083D08307D6605B0F0BD00000000C5
:1017C800010000000400000004000000C8560010DA
:1017D800044B99685869884202D00349034A0A6051
:1017E80070470000F00E002004ED00E0000000103B
:1017F80070B5224B0C005B6888B0DB05DB0D62B668
:10180800BFF36F8F0025160E2900FF2E09D1F33E76
:101818001640082E05D001000135120701D5210018
:1018280000250024032B14D18B69154A934202D357
:10183800144A934206D3144A0024934209D3134A04
:10184800934206D2023B1A88114B00249A4200D1D7
:101858000C682022684603F04BFE079B002D0AD037
:10186800DA0502D10B4A134307936946200003F0B7
:1018780045F808B070BD5B0A5B02F5E700ED00E0D3
:10188800A8010010385500100000002000000020BA
:1018980002DF0000FF010000EFF30880EFF3098189
:1018A80001B57246FFF7A4FF01BDC046F0B5C024DC
:1018B80000220326FF25A40010002F003040C0009E
:1018C8008740054993089B005B1819590132B943B1
:1018D80019511A2AF0D1F0BD00E100E072B60748AC
:1018E8000749401880F30988EFF314800221084360
:1018F80080F31488BFF36F8F00F0C8F848170020F2
:101908000008000010B50A4B9B6883420DD1EFF325
:101918000583002B09D08022064B520559680A43DB
:101928005A605A6A04490A405A6202F0A7F810BD80
:10193800F00E002000ED00E0FF7FFFFF084A094994
:10194800936809689866D966802307495B054868E3
:1019580003434B6062B6BFF36F8F9368D86E7047CE
:10196800F00E0020F457001000ED00E015498A68D9
:1019780015481044EFF3098CF0C043464C465546D1
:101988005E466746F8C072B6104F114E4A698A60C3
:101998003E60104C141920680F4C2060906E002394
:1019A8009366002800D162B6074C10191030F8C8A9
:1019B8009846A146AA46B346BC462438F0C88CF3DC
:1019C80009887047F00E00203000000004ED00E0A8
:1019D800000000086400000004080020042071468C
:1019E800014202D0EFF3098001D1EFF30880816949
:1019F800023909780229FFD001B502F083FF01BD41
:101A080043B2000605D41F221A4001239340014A1D
:101A18001360704700E100E043B2000609D41F22BA
:101A28001A4001239340034AD367BFF34F8FBFF394
:101A38006F8F704704E100E030B5FF2503220B00EB
:101A4800290040B20240D20091405B012B40C943BB
:101A5800934000280ADBC0240A4A800880008018C6
:101A6800A40002590A401343035130BD0F2210400D
:101A78000838054A800880008018C2691140194357
:101A8800C161F2E700E100E000ED00E0FF22084B51
:101A980010B59343074A9360BFF34F8FBFF36F8F1F
:101AA80001F0E4F802F058F8FFF700FF01F024F91C
:101AB8000001001000ED00E010B5203A1360029B11
:101AC80001245360039B06499360049BA143D360A0
:101AD80080235B04D361002391610265836610BD96
:101AE80089050010074B9860074B406E1860101C62
:101AF80081F30988002162B6BFF36F8F00220023AB
:101B0800FEF73EFDF00E00200408002001491022D7
:101B18000A60704710ED00E0BFF34F8F30BF62B628
:101B2800BFF36F8F7047C04601B5EFF305800549D5
:101B3800401AC0000449014409C9984709BC9E4697
:101B48000249084710000000F8550010D917001086
:101B580010B5024B1B689847002010BD08080020EC
:101B6800034B044A1860022391780B439370704723
:101B7800080800200C01002010B5034802F0BDFB46
:101B8800042062B602DFC04666580010072310B56D
:101B98000449054A99430548521A02F04FFC0020AF
:101BA80010BDC046C7300020002004200C080020CB
:101BB8000B4B0C4A70B51A600B4D0C4B0C4C2B6040
:101BC8001900A2689143FBD100F0B6FD094B2B60C8
:101BD800A368DB43DB01D809002BF9D170BDC046EF
:101BE80000E00040BFCDFFFF00F00040FE3F3C009A
:101BF80000C00040FFFFFF010200802103008A436C
:101C080000200F2A08DC5AB20448002A00DA0448E7
:101C18002C228B435343C0187047C0461C08002031
:101C2800DC0A002070B50500FFF7E6FF036A040030
:101C38001B685B0522D56DB200F088FE012812D919
:101C4800EA430123D20F93400D4A0E4913664A6EA8
:101C58001A409A42FBD1216A0B480A6802400A607E
:101C68000A4A136604E0226A074913680B401360A6
:101C7800002D03DA20000C3001F08CFA70BDC0464C
:101C88000020115000001150FFFBFFFF00301150E1
:101C9800F0B589B00E2000240026002780220F4DC1
:101CA800404203900696079728000D4B0D4904946F
:101CB800029401940094D20001F0AEF80A49280079
:101CC80003F05EFA220003210520FFF7B5FE052088
:101CD800FFF796FE200009B0F0BDC04620040020A2
:101CE800351D0010481300206F58001010B5010072
:101CF800024C200001F0FAF810BDC0467402002022
:101D08001FB500246B461C71062302936B46002204
:101D18001C7301A80023FFF7E9FF024B024A9C54F9
:101D28001FBDC046180800208B050000F0B58025AF
:101D380001267642F71785B06D0011483B0001A9CE
:101D4800320001F021F96B461979002910D01C7B6B
:101D58002000FFF751FF0299002902D1094B0A4AD6
:101D68009D524368002BE8D02000C9B29847E4E7A9
:101D7800044B1B68002BE0D00298C0B29847DCE700
:101D8800740200201808002084050000F0B56D4B8F
:101D980089B01C686C4B1C4206D06C4B6C4A9B5C2F
:101DA800002B01D0FFF7ACFFE3060AD50026012778
:101DB800684B9B6D0193019B002B02D0202E00D015
:101DC8008FE0E30320D58022634B92021A658020BE
:101DD800FFF728FF5D4D6B6A1B685B0502D5002085
:101DE800FFF720FF01225D4B02A9EA54BB239B00A9
:101DF800EA5400232C350B752A70069305A80A733C
:101E080000230022FFF772FFA30413D58022524B50
:101E180052021A65002302A90B720B704D4B196D03
:101E28000223114200D0DB1803930022002302A8EA
:101E3800FFF75CFFE3041BD580220025B026464B44
:101E480012031A65434B464F1D60B60078192C35AE
:101E580001F0A0F9B542F9D1002302AA13720122B8
:101E6800039202AA137002A800220023FFF73EFF84
:101E780063040ED51022384B05A81A65002302AA60
:101E880013730522069202AA137500220023FFF796
:101E98002DFF230405D580222F4B12011A65FFF769
:101EA8002FFFA30603D580222B4B12061A65630663
:101EB80003D58022284B12051A65230603D58022F4
:101EC800254BD2041A65E30503D58022224B9204E0
:101ED8001A65A40503D580221F4B52041A6509B060
:101EE800F0BD019B3B422AD01B4B75109F65012317
:101EF800EDB21E4216D1002E09D1144B194A995C35
:101F0800002904D09E54184A9B5C124A136080230F
:101F18005B421D43EDB22800FFF76EFE0C3001F066
:101F280039F90223012102AA1575117305A8069330
:101F380000220023FFF7DAFE019BBB4301937F00D9
:101F4800013638E7980011501000010018080020E9
:101F58008B0500000000115000301150840500006E
:101F6800E80A0020860500008A050000F8B58023ED
:101F7800264A5B041360264A264913601C008A68B7
:101F88009443FBD1244D9C222100280003F0B9FA88
:101F9800802221005201214803F0B3FA09236B671C
:101FA8000333AB670B3B2B6480239B05EB641C4A14
:101FB8001C4B1D4E1D4D1E4F1A603B1F77626B61F7
:101FC800002C1BD07C3B33621A4A043B2B61E30193
:101FD8009A18B262184A9B18AB61012228001100B6
:101FE800013403F0E6F808372C362C35102CE4D1F0
:101FF8008022124B52020020DA64F8BDBA210E4B3F
:10200800094A890093625350E7E7C04600E0004060
:1020180000F0004000C000400000115000001050C7
:10202800F0F301009000115018080020E80A002081
:102038008400105040011050000110500020115031
:10204800014B18607047C046180800200121034B57
:10205800034A9954034A98540020704718080020EE
:10206800860500008A05000070B50400FFF7C4FD6E
:10207800051E1CD080231B01620613D164B20D4AD1
:10208800002C07DB02219166026A136001230020FD
:10209800EB7070BD01219166026A13600020FFF7A2
:1020A800C1FDF3E7026A1360802CEFD1F6E7162032
:1020B8004042EEE70020115010B50400FFF79CFDE8
:1020C800031E1ED08022210091430A0051424A413A
:1020D800016A52030A60C169002909D0406A9B78E5
:1020E800094A9B0642401343A022120613430B6081
:1020F800002063B2834203DD4021200002F056FC39
:1021080010BD16204042FBE700001050F7B506004E
:1021180014001D000191FFF76FFD002844D073B231
:10212800002B41DA802E0DD1214B224A9B5C002BDB
:1021380005D0002D00D02C6000263000FEBD4027C1
:10214800BC4203D80788A74200D927000C300400F6
:102158000022002301F040F8002827D103F00AF8F4
:10216800002802D10530FFF757FC30003A000199EA
:1021780002F0E0FB061E0ADB02F0FCFF002802D199
:102188000530FFF73DFC002DD7D02F60D5E72000A4
:1021980001F000F802F0EEFF002802D10530FFF749
:1021A8002FFC05267642C8E71626FBE70B26F9E73B
:1021B8001808002084050000F7B506000F000092FB
:1021C8000193FFF719FD051E34D073B2002B31DBE4
:1021D800002E19D1194B1A4A9B5C002B14D00824E5
:1021E800002F0BD0009C082C00D908242200154988
:1021F800380003F07DF9AB681B19AB60019B002B1D
:1022080000D01C600020FEBD300002F031FCAA683E
:10221800841A002FF2D0009B9C4200D91C00002E8B
:1022280004D1064B06495B5C002BDFD1696A89182B
:102238002200DDE716204042E5E7C04618080020E6
:102248008505000000001050F8B50400FFF7D4FC25
:10225800061E32D063B2002B2FDB002C26D1184D7E
:10226800184B194FEA5C002A0ED0FA88002A08D0C9
:10227800B122D200AC52EC544021200002F096FB6F
:1022880001E0EA540020F8BD200002F0F1FB3B78A1
:102298007F2BF7D8B122D200B168AB5AFE885B1801
:1022A800B342EFD28842EDD1AB52E5E7200002F00D
:1022B800DFFBB3688342E5D1DEE716204042E2E760
:1022C80018080020850500000000105010B50848C7
:1022D80002F034FF002808D0064C2000FFF740FC2D
:1022E8002000FEF72FF9002010BD13204042FBE725
:1022F800BC5500100123001070B50400074D0A28D2
:1023080004D1AB680D2128005B689847AB682800AA
:102318005B68E1B29847200070BDC046BC5500100C
:10232800F7B50600002403690193E308144A08334B
:102338009B009B58072222409200D3400F22134251
:1023480003D101341E2CF0D1F7BD0F21200000F07D
:1023580065FB019B59680029F3D00127A7400D6848
:102368000029EED08B681A003A403B4202D0300078
:102378004B6898472B1E00D02B6829001D00EFE7FB
:1023880000410140436803495A68936B0B409363CB
:102398007047C0463FF8FFFF10B5032B23D8012A2A
:1023A80002D0032A1FD1013A02291CD80468013A35
:1023B8000E485B01D200415C1A43200000232C30F8
:1023C800994205D0023301391A434B4259418B00D7
:1023D8001A436E23E16A4A401A4080235B01034393
:1023E80000201A6010BD16204042FBE79F580010DD
:1023F80070B580251049114B8C681B680E68104811
:102408008A686D02002C08D1002A11D11A002E42C8
:1024180009D100681818801A70BD002A0AD02E4207
:1024280001D1A242F5D90468E41804600968F0E70C
:102438001C00F4E71A00F2E710E000E0C00D0020ED
:10244800BC0D00200020094A136A1B021B0A1362F4
:10245800074B084A1A60084B084A1860084B5A602C
:102468000722986019680A431A60704700ED00E077
:10247800C00D0020D4300000BC0D0020D330000077
:1024880010E000E0F8B50024FFF7B2FF0F4E23007C
:1024980031680F4D0A00286869688018594128601A
:1024A80069600C4D34600C492E686F68801BFDF71D
:1024B80081FE0949230041430A0092197B412A60A1
:1024C8006B6001F01BFCFFF783F9F8BDBC0D002021
:1024D8009804002090040020D4300000F0B53B4B55
:1024E8003B4D87B000295FD0421C08D101212A68E2
:1024F8008A432A60FF2212061A6007B0F0BD1B68E3
:10250800039300230293012853DCEFF3108372B680
:102518000593FFF76DFF00221100AB6804932D4B64
:102528001E685F6836184F413000390018605960DE
:10253800294B009601971A60284B1C68009B1B1BAF
:1025480093423DDB264F0298264A78438018C018EC
:102558003900FDF72FFE009B7843E41A80232018EA
:10256800DB00984200D218001F4B984200D918008F
:10257800164B184918600138AB6868600020A860DD
:10258800049AD41A9A421ED2039D621903000C6859
:102598004D6812196B410A604B60059B002BACD14A
:1025A80062B6BFF36F8FA8E71B680393431CA8D1DB
:1025B8000E480F4B984200DD1800431E0293A4E713
:1025C8008020C000D4E72200E0E7C046C00D00200C
:1025D80010E000E098040020BC0D002090040020CA
:1025E800D4300000D330000084C6FF003D05000051
:1025F8003E05000070B5EFF3108572B6084A094B26
:1026080014681B68E41AFFF7F3FE0019002D02D1C5
:1026180062B6BFF36F8F0449FDF7CCFD70BDC046AD
:102628009804002090040020D430000070B5EFF327
:10263800108572B6054B1C68FFF7DAFE2018002DCE
:1026480002D162B6BFF36F8F70BDC04698040020F8
:10265800F0B585B001920A9A05000F00934201D2A5
:1026680001F004FC0C241A0E1B02039202930A9A2E
:10267800002302980399FDF757FE6C432C4B060084
:10268800E4186368834200D260602B1FDBB20093BA
:10269800C023009A9B012343012A1BD8012F19D17B
:1026A80003221A60A3683B42FCD0019A23685201B6
:1026B8005A40E0231A4080235B0123431A60032118
:1026C80022687A400A401A600123BB40A26813427C
:1026D800FCD01AE0802212011A60164BAA00D158C9
:1026E800002905D05869FDF765FD01300138FDD195
:1026F800019A236852015A40E0231A4080235B0163
:1027080023431A60009A012AD9D9802380229B0189
:10271800234312011A60029866603200002303996D
:10272800FDF702FE034CAD006051012005B0F0BD7D
:1027380000800040C40D002073B50C2000F0F6F8AE
:1027480000F0FCF800280AD000232C4A2C489900F5
:10275800013350500A2BFAD12A4B536273BD2A4DCC
:10276800A86700F0CFF80122284B1A606B6C012B88
:10277800FCD10322264B1A60AC6B012CFCD102253C
:102788000526210000950623224A234800F054F824
:1027980033002100214A2248009600F04DF8214BD1
:1027A8002900214D009300220420FFF751FF2B0040
:1027B8002100002230000095FFF74AFF0022104C4C
:1027C8001100230000940720FFF742FF0022230096
:1027D800110000940820FFF73BFF0022094B11006D
:1027E800009309202300FFF733FF00222B0011007C
:1027F80000950620FFF72CFFB0E7C046C40D002067
:10280800006CDC021BB70000008000403CB00040B8
:1028180030B00040002F685900800240008C864785
:1028280000C00240001BB70040597307014B8000ED
:10283800C0587047C40D0020F8B5170004000C20DC
:102848001E000D00FDF7B6FC274BFA18274B9A42DD
:1028580001D901F00BFB264941433800FDF7AAFCDA
:1028680002009823103A5B009A42F2D8731E062B96
:10287800EFD8069B013B062BEBD8069B32041E03C0
:1028880023681643002B0FDA3F2223681340AB421C
:102898000AD1A3681B051B0D834205D1EE22E3680C
:1028A800D2021340B3421BD0124B9C4219D0802352
:1028B8005B01114A11491360114A13601F008A68AD
:1028C8009743FBD1C023221D9B011343212225607E
:1028D800A0601A602268002AFCDA0822E6601A6002
:1028E800F8BD80239B01E4E780E84BD380F8A93248
:1028F80040420F0000C0024000E0004000C000401D
:1029080000F00040AA22064B12011A602F22054946
:10291800DA60054A11605A68002AFCDA7047C04636
:102928000040024000B0FA00006002408023024AE2
:102938009B000343D362704700800540024B186830
:102948008007C00F7047C04600C00640802310B5FE
:10295800DB0518680649030B02059BB2120D8A4273
:1029680001D001F083FA022BFBD1000F10BDC04645
:1029780027090000084B8200D218402310B51468BC
:10298800C0006340C02423408024640122431360B4
:10299800024BC018416010BD04C001400040014016
:1029A800074B8000C0180368C90092000A435A40C8
:1029B8000C231A4080235B0103431A607047C0460A
:1029C80004C00140054B8000C01802228023002962
:1029D80000D1C0239B0103431A60704704C0014023
:1029E800054B8000C0180368594001231940802313
:1029F8005B0103431960704704C00140064B800027
:102A0800C0180368090159403023194080235B012D
:102A1800034319607047C04604C001400722C30839
:102A2800104080008140024A3C339B009950704717
:102A380000400140F8B5D0231B061C68050063421E
:102A48005C412F2364429C430A4B0F00E418160094
:102A5800FFF7E4FF07232B40ED089B00AD009F40E4
:102A680064198023002E00D1C0239B0123431F60DB
:102A7800F8BDC04630410140054B8000C0184022D7
:102A88008023002900D1C0239B0103431A607047AB
:102A980004C0014070B5060006200C00FFF7C6FE12
:102AA8002100C000FDF786FB0124C50907D00E4BA5
:102AB8009D4215D87F23184000192C004508802313
:102AC800002274629B01B5622C3633431A600620DB
:102AD800FFF7ACFEA10149198000FDF76BFB70BD43
:102AE8000025024CEBE7C046FEFF0000FFFF000098
:102AF80070B5040006200D00FFF798FE00282ED0C0
:102B0800194B9C422CD08023DB03184A18491360C8
:102B1800184A136018008A689043FBD1164B174A6D
:102B2800E31859424B4180215B004900995220002B
:102B38002900FFF7AFFF6023E26A210053406E22AD
:102B4800134080222C3152010A4313600C4B10228F
:102B5800236380239B010B431A600323A36470BD86
:102B680080231B04D1E7C0460080034000E00040FA
:102B780000C0004000F000400080FCBF280F00208B
:102B88000103000070B5041E12D0FFF74FFD0023AB
:102B9800084A050000212000FDF70AFC0023064A28
:102BA800FDF7C2FB0400FFF741FD401BA042FAD32A
:102BB80070BDC0464059730740420F0070B5EFF32F
:102BC800108572B6064B9C6802F0C9FA002D02D136
:102BD80062B6BFF36F8F2000FEF794FE70BDC0464B
:102BE800F00E0020F7B50127124E830001309C59E2
:102BF80083000193019BF358A34200D8F7BD656891
:102C08002368002D13D0002B0BD0280098470028EC
:102C180007D0C2178018EB685040FF2800DDFF205E
:102C28001870EA6853783B4353700834E2E79847D2
:102C3800FBE7C046F857001010B50124094B0320E4
:102C48001C70FFF7CFFF01F0DDF80420FFF7CAFF83
:102C580000F00EF9FDF744FC034A137BA3431373FA
:102C680010BDC0463F0F00201005002010B5034AD4
:102C780003480021121A02F075FA10BD440F002013
:102C880090030020F0B570270F2504004743010288
:102C98001348012609180020802287B003950535BE
:102CA8006543104B0590029001900F48FF182D18AE
:102CB800B24038000D4B0496009500F075F80422D8
:102CC8007B7B2C7493437B73A419094BE402E418AF
:102CD800EF606C600748310002F0B8FB07B0F0BD48
:102CE800481F0020A0040020F00E0020975100107B
:102CF80048170020EC0E0020F0B50020A3B0FFF725
:102D080071FF214B83F308882049214B0A6A00256B
:102D18001A40E0231B0413430B6201F0FFFDFEF78A
:102D2800F5FE02221B4E06ABFF329A81B3601E9558
:102D380002F003FA0120FFF755FF0220FFF752FFC8
:102D480000F0F2FD144C154B7461802205930123A9
:102D5800134E14490493D2003300200003950295C2
:102D68000195009500F020F804220700637B2000FD
:102D78009343637302F0C5FA2800FFF783FF32001C
:102D880039002000FEF7AEFE481F002000ED00E0ED
:102D9800FFFF00FFF00E002010050020B0580010C3
:102DA800412C001048200020F0B587B0059303009F
:102DB80058338365C365109B0727037304230025D5
:102DC800437307320F9BBA4383738B180E008560D9
:102DD8001900C5738561C56104000493FEF7C4FC3E
:102DE800049BC019B8431F1A0E9B3A0002930D9B0F
:102DF800310001930C9B20000093059BFEF75CFEBD
:102E0800044B65659B68AB4200D01B6E3800236697
:102E180007B0F0BDF00E002070B50400002086B0A9
:102E280005900E98119D04900D98109E03900C9893
:102E380002900B9801900A9800902000FFF7B4FFC9
:102E48002B00721C01D1013305D02B00334305D16F
:102E5800200000F0FDFC200006B070BD200032000C
:102E68002B000249183000F0DBFEF4E76153001034
:102E780070B51B4C86B026001A4DAC4207D300F043
:102E88002DFDAE4219D300F039FD06B070BD636A5E
:102E98000593236A0493E3690393A369029363691F
:102EA800019323690093E368A26861682068FFF7CB
:102EB8007BFF23685C653034DEE7B26AF36A511C35
:102EC80001D1591C05D011003068194303D100F015
:102ED800BFFC3036D5E70449183000F0A1FEF8E70A
:102EE800C8560010C856001061530010F0B50F0006
:102EF800010085B0083104000391EFF3108672B623
:102F0800006AE16888422CD2200002F02BFAA268FD
:102F1800051E0FD000243900406902F0E9FA2800A4
:102F2800EC6602F0EEF90398310000F07BFC20001B
:102F380005B0F0BD3900E06902F0DAFAE369A26889
:102F48009B186269E361934201D12369E361002020
:102F5800236A01332362002EEAD162B6BFF36F8F72
:102F6800E6E7110019430AD00649039889684F61BA
:102F7800009231002200019300F0F6FBD8E72320ED
:102F88004042E8E7F00E0020F7B5040027000800EB
:102F98000837EFF3108672B6216A002930D0A2688C
:102FA800A16902F0A5FAA369A2689B186269A361E6
:102FB800934201D12369A361236A2000013B236264
:102FC80002F0D0F9051E2BD0A268E069696902F009
:102FD8008FFAE369A2689B186269E361934201D1A1
:102FE8002369E361236A2800013323620024EC6625
:102FF80002F087F93800310000F014FC2000FEBD13
:10300800110019430AD009498968486100923100C2
:1030180022003800019300F0A7FBF0E7232040428C
:10302800002EECD162B6BFF36F8FE8E7F00E0020F8
:10303800F0B585B004001F000392EFF3108672B656
:10304800C368354A002B0ED080689168884217D033
:10305800039B3B431AD1002E02D162B6BFF36F8F98
:10306800102040420AE09168897B49B20133E3604D
:1030780093682161A360002E04D0002005B0F0BD44
:103088002169F3E762B6BFF36F8FF6E70E23897BFA
:10309800C35649B2994200DD19000A007F3201DAAD
:1030A8007F21494200258B4202DD02F077F80500B6
:1030B8001A4B22000293039B310002980093019758
:1030C80000F052FB0028D8D0EFF3108672B6A06843
:1030D800002819D0236821699C420BD0002B09D005
:1030E8009B7B5BB2994200DD19000B007F3301DA4C
:1030F8007F21494202F052F8002805D03100029899
:1031080000F090FB0B20ACE7002DF7D1002EF9D191
:1031180062B6BFF36F8FF5E7F00E0020400F002076
:1031280070B583680400002B2AD0184A926893422D
:1031380029D1C368012B03D9013BC360002070BDAE
:10314800EFF3108572B60169806802F027F8200055
:1031580002F008F9A06000280BD00E23C3562361A3
:103168000023C36602F0CDF82900094800F05AFB95
:10317800E4E7E060002DE1D162B6BFF36F8FDDE7D1
:1031880016204042DBE70120FBE7C046F00E002096
:10319800400F002070B50400EFF3108572B602F0FE
:1031A800E1F8002808D00023C36602F0AAF8290035
:1031B800084800F037FB70BDA268E3689B1A591EE7
:1031C8008B419B18A360002DF5D162B6BFF36F8FBA
:1031D800F1E7C046400F002013B50400EFF310815B
:1031E80072B68068002808D00138A060002902D192
:1031F80062B6BFF36F8F002016BD1000184307D1C9
:10320800002902D162B6BFF36F8F10204042F3E766
:10321800009201932200024800F0A6FAECE7C046AB
:10322800400F0020F0B5050087B0EFF3108772B6A5
:103238002E002C6F8836002C13D10221300001F0AB
:10324800C5FF00283CD100232A00029301235B42DA
:10325800DC173900009301947832394800F06AFC91
:10326800E3E723686A6F2B67944200D16B670222F9
:103278003368134333600423E2689A43033B1343E0
:10328800E3606368002F25D020009847EFF3108390
:1032980072B60593E36801211A008A435008084270
:1032A8001CD1E260022233689343059A3360DB0540
:1032B800DB0F002A3FD0002BB7D100F03FFBB4E76B
:1032C8002C00803400220121200002F08AF8002816
:1032D800F8D1B8E762B6BFF36F8FD5E703229343FF
:1032E800E360184B18680028DCD0002703680493B3
:1032F8000028D7D0436802009C420ED10268114BC7
:10330800002F12D159681A60814200D15A600023F7
:1033180003600830FFF73EFF3A00049B002B00D003
:103328001B68049817000493E2E73A605A688242DF
:10333800EDD15F60EBE762B6BFF36F8FBBE7C046C6
:10334800400F0020100F0020F7B5C3680D00590882
:1033580001220F000400174011424BD19B08134271
:103368001DD12B68002B01D183682B600127E368EE
:103378003B4202D0A368FF192B602E68002E47D06D
:103388003200244B88329B680192B34222D001213B
:10339800126893080B400A4204D113277F42002386
:1033A8002B6015E0002B25D1D3080B40002B21D131
:1033B80000232360736F002B27D1746734673000B4
:1033C80001F010FF0423E2681343E3602B68A36055
:1033D8003800FEBD01F0CEFE019B01221B680028CB
:1033E8000AD1D90811401342D7D00029E0D09B0850
:1033F8001342DDD11027D1E7990811401342CCD0F0
:103408000029F7D1DB081340D0E71C607467D6E7C2
:103418001627C3E7F00E0020F0B50400002020674F
:10342800606720002600783089B0A067E0678036A2
:10343800201D0E9DC6670430C6670120002D07D0E9
:10344800287946427041FF264042B0430230FF309F
:1034580026008836306001267642F71706960797C9
:1034680000260B4803930496030002962000019659
:103478000094FFF7D1FCB54205D02968B14202D0CB
:10348800200001F07DFE200001F07DFE09B0F0BDB6
:103498002D32001073B50C000190EFF3108572B651
:1034A800CE680E2100200E4207D119001143814237
:1034B80009D1200001A9FFF747FF002D02D162B60C
:1034C800BFF36F8F76BD082120003143E160019979
:1034D8001030A162024900F0A3FB0120EDE7C046CD
:1034E800FF510010C289030000207F2A11D80A4A20
:1034F800106800280DD00E21084A5956126800207D
:10350800914206DB5A7BD20603D10548181A431E9E
:103518009841012318407047200F00201C0F0020FD
:10352800A00400200121044B044AC01A044BC01017
:103538004343D1547047C04680050020400F002007
:10354800ABAAAAAA70B518240C4B05001E7C0C4B1C
:103558007443E418200001F062FF0022094B2800A0
:103568009A55FFF7BFFF002807D0074B20001A68BD
:103578000649013AD31700F053FB70BDF00E002046
:1035880080050020400F0020200F00202D3500105E
:1035980070B50E4D0E4BAC699C4201D0002C00D189
:1035A800EC68AB68002808D15A7BD20605D1A2691D
:1035B800002A02D1DA897F2A05D89C4202D020004D
:1035C800FFF7C0FF23006B6170BDC046F00E0020FE
:1035D800080F00200D2270B582560400437B002A94
:1035E80004DA7F221340437301F04FFE8023627B8D
:1035F8005B421343134A637393691348834200D1B0
:103608000023D169002B04D1206061600C60D46173
:103618000CE00E250E2665579E57B5420DD0AE42DA
:103628000BDD5968236061600C605C609068001B6A
:1036380043425841FFF7ACFF70BD9942E4D01B6884
:10364800E0E7C046F00E0020080F00200D2370B5FB
:10365800C356417B002B26DBCB0624D18369002B84
:1036680021D1802252420A434273114A114C916976
:10367800A14200D00B00D169002B04D10460416045
:103688000860D0610CE00E250E2645579E57B542BE
:103698000AD0AE4208DD5A68036042601060586084
:1036A8000020FFF775FF70BD8B42E7D01B68E3E78A
:1036B800F00E0020080F00200D2210B582560400DD
:1036C800437B002A04DA7F221340437301F0DDFDB7
:1036D800034B9868001B43425841FFF759FF10BD40
:1036E800F00E002070B51D001600040001F0E0FD8A
:1036F8002B00721C01D1013306D0200032002B00B0
:103708000249183000F08CFA70BDC04661530010B1
:1037180070B5EFF3108572B6104A114B94681868AB
:10372800A04207D1FFF70EFF002D02D162B6BFF30A
:103738006F8F70BD00211960127C0A4B9B5C8B4215
:10374800F2D02000FFF7CEFE0028EDD0637BDB0629
:1037580002D12000FFF73EFF2000E3E7F00E002033
:10376800180F0020400F002010B509480C00094B25
:10377800110082681A60EFF3108372B6029A039BF5
:103788008068FFF7AFFF2000FEF7D8F810BDC046ED
:10379800F00E0020180F0020F8B50400EFF3108792
:1037A80072B6437B4EB2DA061BD18569002D18D15B
:1037B8007F221340437301F068FD8023627B5B42E4
:1037C80013436373154BA6739A6915498A4200D04F
:1037D8001500DA69002D0CD1216062601460DC618B
:1037E80012E00020A673002F02D162B6BFF36F8FDC
:1037F800F8BD0E20285686420BD0B04209DD6B6812
:10380800256063601C606C600120FFF7C1FE012029
:10381800E9E7AA42E0D02D68DCE7C046F00E0020B8
:10382800080F002010B500290AD1EFF30580002801
:1038380007D1064B9A685B699A4202D0FEF77EF878
:1038480010BD62B6BFF36F8FFAE7C046F00E0020D6
:1038580010B5EFF3108472B60422437B134205D1EE
:10386800002C02D162B6BFF36F8F10BD9343437330
:10387800FFF7ECFE21000248FFF7D4FFF5E7C0464A
:10388800410F002070B50400183001F0C8FDEFF3B7
:10389800108672B60D22A256637B002A05DA7F22B3
:1038A80013402000637301F0F0FC10230A4D627B83
:1038B800A8681343001B637343425841FFF768FE2F
:1038C800002E02D162B6BFF36F8FAB68A34201D15D
:1038D80001F06FFD70BDC046F00E0020EFF31081BF
:1038E80072B6054B9A68D37B013BD373002902D18A
:1038F80062B6BFF36F8F7047F00E002010B5EFF37C
:10390800108472B6074B00209A68D37B0133D373B7
:10391800FFF73EFE002C02D162B6BFF36F8F01F0B5
:1039280048FD10BDF00E0020024B034A9A61DA618F
:103938007047C046F00E0020080F0020F8B5EFF3DE
:10394800108572B67F22194CA068437B13404373DD
:1039580001F09BFC8022A3685242597B14480A4319
:103968005A73A269824200D10022E169002A04D177
:10397800186059600B60E3610CE00E260E279E5715
:10398800D757BE420DD0B7420BDD51681A60596057
:103998000B6053600120FFF7FBFD2800FDF7CEFF09
:1039A800F8BD8A42E4D01268E0E7C046F00E002075
:1039B800080F00200300F7B50B4304000D00002B8F
:1039C80003D1FFF7BBFF0020FEBD4B1C2EDB4B1CB9
:1039D80001D1831C2AD301F035FD2718EFF310839A
:1039E80072B6144E0193B068134B1860FFF764FE6B
:1039F800B06822002B001149183000F011F910238B
:103A0800B2680198517B0B435373FDF797FF01F0A0
:103A180019FD00233A0004001D00121BAB41AB4204
:103A280002DCD0D1AA42CED01000CDE702277F42D7
:103A38003F1BD3E7F00E0020180F00206153001041
:103A480010B50B000C00421C07D1013305D1074B00
:103A58009868FFF717FF200010BD2100FFF7AAFFA5
:103A68000A220023C117FCF75FFCF5E7F00E0020DF
:103A7800014B98687047C046F00E002070B50400EE
:103A8800EFF3108672B6037BDB0708D5002E02D150
:103A980062B6BFF36F8F042062B602DF70BD0823E1
:103AA800427B1A4205D0002EF8D162B6BFF36F8F61
:103AB800F4E72021100088430100194348B2002888
:103AC80020DB6173A368002B02D0200001F0E5FB26
:103AD8002000183001F0A3FC2300A56D58339D4247
:103AE80001D0002D16D10120FFF752FD104B9B6825
:103AF800A342D8D1EFF30583002BD4D13000FDF7D2
:103B08001DFFD0E75F210A4013432000637301F0D3
:103B1800BCFBD7E7280001F0C0FB2800183001F0F3
:103B28007EFC00232800EB66FFF790FDD4E7C04633
:103B3800F00E002073B5069D079E089C009501961F
:103B4800FFF712FE002C03D0024B9B685B692360D1
:103B580076BDC046F00E002010B50648064A074953
:103B6800121A01F003FB064A0649074801F0FEFA5B
:103B780010BDC046000000208C0300201059001022
:103B8800000000001059001000000020002010B5AF
:103B9800034B1B68834201D1FEF72CFD10BDC046C4
:103BA800240F002070B50E4B1E689E4203D1FFF70C
:103BB800EDFF0C4870BDFFF7E9FF002EF9D0326920
:103BC80073690400C517121BAB41002BF1DC03D14C
:103BD800802109068A42ECD2D843C0171040E9E791
:103BE8002C010020FFFFFF7F30B500280ED00B4BC3
:103BF8005B6898420AD00168002907D00A694B69B6
:103C08000469456912196B410A614B61036842688E
:103C180013605A6000230360436030BD2C0100200C
:103C2800F7B5040016001F00531C01D17B1C57D0A8
:103C3800A160EFF3108372B60193002F23DA7B1C87
:103C480001D1B31C1FD82B4B186859680222524265
:103C5800D317121A8B41921BBB41002B04DC01D1F4
:103C6800002A01D101220023234F226163613D68AC
:103C7800BD4200D100257E68002D0FD12760666007
:103C880034607C601CE0FFF781FF01220023921959
:103C98007B410600C71792197B41E5E728696969E6
:103CA80022696369994202DC1BD1904219D9801AB2
:103CB80099416B6828616961636025601C606C606C
:103CC8003B68BB4206D09C4204D1FFF76BFF002142
:103CD800FEF704FC019B002B02D162B6BFF36F8F85
:103CE800F7BD121A8B4122616361B542C6D02D68B7
:103CF800C2E7C046980500202C010020F0B585B029
:103D0800EFF3108372B60293304B1860304B1C6887
:103D18009C4200D100242F4B2C4D039318685968FE
:103D28002B689C46002C39D062692669DB179A42B9
:103D380002DC0AD1664508D91F0022696369664614
:103D4800921BBB412261636128E0F317009601933F
:103D5800009A019B80185941002300221D4F2261BF
:103D68006361386079602000FFF73EFF029B002BFB
:103D780002D162B6BFF36F8F2000A3689847EFF3B4
:103D8800108372B60293114B1A68921B1A60104B7B
:103D980094461C689C42BED1386879686246D3173D
:103DA80012184B41002403992C600A604B60FFF7FE
:103DB800F9FE2100FEF792FB029BA34202D162B6F4
:103DC800BFF36F8FFFF7A4FC05B0F0BD240F0020F0
:103DD8002C0100209805002010B5EFF3108472B66E
:103DE800FFF7D4FE02000649C3170868496880181F
:103DF8005941002C02D162B6BFF36F8F10BDC04687
:103E08009805002010B5024800F077FA10BDC046AA
:103E1800B558001010B5064C064B9C4201D3002043
:103E280010BD2000A268616801F01DFB1434F3E79F
:103E3800600200206002002030B5094B85B00024E4
:103E480002938022012302AD2C7106490648009591
:103E58005B42D200FFF7E0FA200005B030BDC04653
:103E6800E358001048240020A0050020034B10B59B
:103E78001968034801F00AFBFDF77EFE245700107D
:103E8800EC580010F0B543688FB003900693837820
:103E980017009B0700D4F5E0002301930D78002D4F
:103EA8006AD0252D0DD04B1C0793019B013301933C
:103EB8000399069BE8B29847002800DADCE00799E6
:103EC800ECE74D788B1C0793252DEED000230421B9
:103ED8001C00079A0293059307921F2C2ED82800DE
:103EE800203810280AD8FCF75BF91D0909270909A9
:103EF800091E0909091B0925090918002B00303B6F
:103F0800092B29D92A2D32D108CF600622D4002BBB
:103F180029DB20200593044305E001231C4302E02C
:103F280002231C430C43079B01321D78002DD3D17B
:103F380007922DE00823F1E71023EFE77F2C1ED826
:103F48002B00303B092BDDD8600605D50A20029DE1
:103F58006843C3180293E6E70A20059D6843C3181F
:103F680005932023DAE75B4205932823D6E72E2D15
:103F780005D140231C42D1D001980FB0F0BD6C2D63
:103F88002DD027D8682D31D06A2D32D04C2D30D085
:103F9800029B002B03DA40239C4300230293202337
:103FA8002B431A00653A022A01D9612B24D107252F
:103FB800FB1DAB4308331F00B24E240751D5019BAC
:103FC800019CEB180293029BA3424CD1059B029CD7
:103FD8005D1B4BE1742DA6D07A2DA4D0D8E78023A1
:103FE8001C429BD080208000044397E780235B001D
:103FF800F6E7A0239B0091E728006338122800D930
:10400800C2E0FCF7CDF80A43C1C1C1C143C1C1C177
:10401800C1C1D1BDC1C10FC1970004CF0BAE0125ED
:104028003270CAE740CF002E00D1974E029963063E
:1040380001D401214942300001F01DFA0500BCE716
:1040480020200399069B9847002815DB013CA542D0
:10405800F6D3059A019B944663441B1B0193059470
:10406800ADE7059CF3E7019B0399F31A185D069BDE
:10407800984701340028A6DA039B9A78042313434F
:10408800039A937001235B42019375E723062FD5AA
:10409800A3052BD50722FB1D93431F00186808377B
:1040A800102326009E4300282BDA8023DB001E43C2
:1040B8004042B6B20A220BAC210001F0FDF9041B04
:1040C800730652D5012332009A431300029AA24282
:1040D80000DC81E0002D7AD01022310011400991D6
:1040E80016427BD1029A1E00049217E001CFD7E74F
:1040F80001CFE305D4D5A30501D540B2D0E700B27E
:10410800CEE70028D6D16306D4D5029B002BD1D1A7
:1041180011339C43029B26001C00049332005B4B26
:104128001A4009921E425DD0049B01330493002378
:10413800099357E010230A229C43230639D5A30587
:1041480035D50721FB1D8B431F0018680837002849
:1041580038D1162326009E43630636D5029B002BD2
:1041680033D117339C432600029C102332001A4097
:1041780009921E4246D0631C002D32D022002FE047
:10418800102278251443D8E7782B03D110225B1B23
:104198001A43D2E725200399069B9847002800DA9E
:1041A8006AE7019B023382E608220025C5E701CFB2
:1041B800CDE701CFE305CAD5A30501D5C0B2C6E74F
:1041C80080B2C4E706239C4326000BAC74E7112396
:1041D8009E43029B0493A1E71E00C6E71E00029AB5
:1041E800931C0493330724D4F30709D5059B049A39
:1041F8000294934204DD9B1A1B190293059B0493B6
:10420800049B0AE0049489E720200399069B9847B9
:10421800002800DA30E7089B01330893089A059BC9
:104228009342F1DC049A019B9B1A089A9B1801930C
:104238000492099B002B2BD030200399069B9847AA
:10424800002800DA18E7019B002D11D101330193F2
:10425800019E029B019A9B189B1BA34226DC25000A
:10426800002D2BD1059B049AA4199D1A019438E0BE
:1042780002330193E8B20399069B98470028E7DACE
:10428800FAE6C04605590010FE5800100604000062
:10429800174B1E42DCD02020B30700D50B30760523
:1042A80000D52D20019B01330193E4E730200399C9
:1042B800069B013698470028CBDADDE60BAB013DBB
:1042C800E85C0399069B98470028C9DAD4E6019B65
:1042D8002020013301930399069B9847002800DAB0
:1042E800CAE6019A63199B1A002BF0DCE7E5C04681
:1042F800060400007047002070470FB407B504A9F2
:1043080001C90191FCF724F903B008BC04B01847AF
:104318008023C900411880681B02984202D392008A
:10432800505870475200505AFBE710B58024C90016
:10433800411880682402A04202D39200535010BD55
:1043480052005352FBE710B50122FFF7E1FF400886
:1043580010BD10B58024C9004118806801232402CB
:10436800A04208D34868002A02D003434B6010BD1E
:1043780098434860FBE74888002A02D003434B80F3
:10438800F5E798434880F2E710B553000122FFF79C
:10439800CCFF10BD8022042310B51202904200D336
:1043A800DB180833DB080131C81AFBF79FFF1F230E
:1043B800181A10BDF8B50D0004008668FFF7C3FF92
:1043C800802301001B029E4201D3012819D030002E
:1043D800FFF7E0FF8300E3181E69002E12D10121C8
:1043E8008140E26820000A43E260290002221D6140
:1043F8002B00FFF79AFF2B00032229002000FFF76C
:1044080094FFF8BD022231002000FFF781FF07006A
:104418000300022229002000FFF787FF3300032250
:1044280029002000FFF781FF2B000322390020001C
:10443800FFF77BFF2B0002223100DFE7F8B580236E
:104448000824DB029A4200D2043C07230027141BED
:10445800CD1D0C199D439C43641BE4080560210095
:104468002000AC60EF60FFF795FF431D9B00DE1D49
:104478003A00F608013001DB103B1A002800002141
:10448800103001F03EF8320028000021FFF77CFFD1
:10449800002328001A001900FFF747FFA71B280070
:1044A80001220021FFF755FF3A0031002800FFF7ED
:1044B8006BFF3300310028000022FFF736FF280089
:1044C80021000022FFF760FF3B00280021000022A6
:1044D800FFF72BFF280001222100FFF73AFF3100E8
:1044E8002800FFF767FFF8BDF0B50400C768466805
:1044F800C069F31B984201D81B1A3F186569751BE0
:10450800451B954200D91500C01AA84200D92800B9
:104518002368F61B9B190B6063681B186360F0BD6A
:1045280083684268D21A8A420CD35918C269C36890
:1045380081604160C91A8A4201D9002070479B18DE
:10454800C360FAE716204042F8E7F0B50F001500FF
:10455800002685B001902A0003A90198FFF7C4FF3F
:10456800040039002200039800F0C2FF36192D1B01
:104578003F19002D01D0002CEDD131000198FFF733
:10458800CFFF300005B0F0BDF0B506001000376968
:10459800B269F569BC1AA54201D8641B5219B368FF
:1045A800DB1B834200D90300281B984200D918005E
:1045B800BB1A3268D3180B6033691B183361F0BD1E
:1045C80043690269D21A8A420CD35918C2698369AD
:1045D80041610161C91A8A4201D9002070479B18BC
:1045E8008361FAE716204042F8E7F0B50D0016009F
:1045F800002785B001903200019803A9FFF7C4FF96
:104608000400002D05D002000399280000F070FF77
:104618002D193F19361B01D0002CECD13900019817
:10462800FFF7CEFF380005B0F0BD704703007022D9
:10463800002013420AD1012108000F321A405BB250
:104648009040002B02DA1032914008007047F7B50D
:1046580016001F000425009001913B0032000199CB
:104668000098FDF753FD030004000B3304D1013D0E
:10467800FFF764F9002DF0D12000FEBD0068002886
:1046880006D0043803685B688B4201D04068F6E7BF
:1046980070470068002808D0043803685B685B68C6
:1046A8009B788B4201D04068F4E7704710B50068EA
:1046B80000280FD0043803685B681A6A1B7FDB0088
:1046C8009B189A4201D14068F2E70832141F2478F7
:1046D8008C42F6D110BD10B5FCF7C2FC002804D0FE
:1046E8004068103043425841C0B210BD10B50200B6
:1046F80004004B1CDBB2083A2534817081762370A4
:10470800C376917010BD030010B5083B9C301A6841
:1047180059680068904710BD002203694A331A702F
:104728007047036900201A004A321278824201D089
:10473800483318787047002203694B331A70704762
:10474800036949331878704703691A0048321278A8
:10475800002A05D01A004A3212780120002A06D110
:104768001A0049321278101E01D04B33187870475E
:1047780001207047036906C370470369022908D0FE
:1047880004290BD001290ED194331B680020136033
:1047980070479B331B789B07DB0FF7E701219B339F
:1047A8001B780B40F2E786204042F1E70020704773
:1047B800036901201A00943212680A601A009832BC
:1047C8001278002A03D0013A501E8241901C1A0028
:1047D800487199321278501E032800D900229A3362
:1047E8000A711A780123062A06D0DB18072A03D093
:1047F8000023052A00D0033300208B71C87170474D
:1048080010B50369402936D00FD810292AD006D808
:10481800012917D0082919D01320404210BD20299A
:10482800FAD19C33042419781FE080246400A14243
:1048380025D02419A14226D08029EDD19C331024FB
:10484800197812E094331A600020E7E701249C33BA
:104858001978A143002A00D0214319700121FCF7DF
:10486800C5FEF1E702249C331978A143002A00D041
:1048780021431970F3E79C3308241978F5E79C3332
:1048880020241978F1E79C3340241978EDE7F8B52E
:104898000469050027008C373868FFF7A6FE3B68D7
:1048A800060019699A68914203D122000021493211
:1048B80011702700A0373A78002A14D05A6859692D
:1048C800DB69521A9B1A3F2B0DD923009E331B78A4
:1048D800002B06D06B6822001B6A0021187BFCF7AE
:1048E800A9FE00233B703000F8BD10B50122FFF788
:1048F800CEFF0138431E9841404210BD10B5FEF767
:104908005DF910BD10B501000068FEF757F910BD3C
:1049180010B5FCF727FFFCF75BFF10BD704710B51B
:1049280000210120FFF7EAFF10BD10B5FDF710F9CF
:10493800002010BDF8B506000F001400FDF75CF963
:10494800036A76B205001B68002E1ADA402C1ED8BE
:10495800002F04D022003900406A00F0C9FD8423EA
:104968001B021C4329002831087803005A1E934172
:104978000122424000200A702A6A5B032343136025
:10498800F8BD8023DB001C4300238360EAE70C208A
:104998004042F5E710B50C00FDF72EF9002802D0CB
:1049A8004460002010BD16204042FBE743B20A00D5
:1049B80010B5002B06DB402900D940220021FFF763
:1049C800B9FF10BD16204042FBE702790378002AA0
:1049D80001D15A0605D1702213405A1E93415842FC
:1049E800704701204042FBE710B504000078FDF74E
:1049F80003F9002805D06388038023798370002099
:104A080010BD16204042FBE710B50400FDF7F4F88E
:104A180000280BD0640601D1002010BD026A13687B
:104A2800DBB213600023C3708360F5E716204042B1
:104A3800F3E710B50C00FDF7DFF8002805D0002CCF
:104A480003D0C3780020237010BD16204042FBE736
:104A580010B5FDF7D1F8002807D0C369002B02D0A4
:104A68001A68D2B21A60002010BD16204042FBE737
:104A780010B5FDF7C1F8036A18688005800D10BDF0
:104A880070B505001600FDF797FB041E03D0162429
:104A98006442200070BD002EFBD02800FDF7D4FB37
:104AA8000028F6D0F3E710B5FDF7A6F8002801D0E6
:104AB800008810BD16204042FBE7D0231B065B6828
:104AC80000200B6070470A0010B5036910001969CF
:104AD80088430100D020000641611C6959692140C2
:104AE8001140816219695B69114099434162002054
:104AF80010BD0A0010B50369100019698843010048
:104B0800D020000681611C69596921401140416229
:104B180019695B69114099438162002010BD0369DE
:104B280008001A699043D0221206D0611B69002040
:104B38000B40D362704710B503695868002821D02C
:104B480088421BD108689C685860A14200D19860CF
:104B580000200860824206D05A680A609A68596044
:104B6800002A00D19960002010E0814206D108682F
:104B7800206098688142EBD19C60E9E704000068F6
:104B88000028F2D1002AE7D11620404210BD10B506
:104B980043685B689847002010BDF7B50D000769AA
:104BA80016000F21002228001C00FDF743FF0122F8
:104BB8001300AB40019380239B039E4205D1FB6801
:104BC800019A93430020FB60FEBD8023610EDB0445
:104BD80023401140F6010DD58900002B01D0082390
:104BE800194301222800FDF725FFFB68019A1A43A3
:104BF8001300E7E7002BF4D00223F1E710B50022F9
:104C080003210D20FCF718FF0D20FCF7F9FE10BD5D
:104C180030B50469D02000060369256953400B406C
:104C2800AB430D00C361036A53409D432B002569C4
:104C38001D4063692B40C362036A5A400A402169D8
:104C4800636911409943C162002030BDF8B5150071
:104C58000F00012452092909066921403800224021
:104C6800FDF79EFE05213800FDF784FEAB0325D530
:104C7800BC403269A90715D522433261D022716937
:104C88001206680707D52143716194616D0307D542
:104C980054620020F8BDA143716154612D03F7D41B
:104CA8009462F6E7A2433261D0221206290301D5A5
:104CB8005461EDE76D03EBD59461E9E7ED03E8D5C1
:104CC800D022BC401206EBE773B505000C00EFF3E9
:104CD800108672B6684600F00FFA002E02D162B64E
:104CE800BFF36F8F082C00D90824280022006946DA
:104CF80000F0FEFB200076BD30B50368136005792F
:104D08000468ED006419A34202D30220404230BD7A
:104D18005C798C4201D00833F0E70020F7E7F8B55A
:104D2800040001268D004519AC4201D10020F8BDD0
:104D38002078271DC006C00E00F0D3F921882078FE
:104D4800C905C006090FC00EFDF714FE617820786A
:104D5800CA09C0064906C90FC00EFDF721FE6178D1
:104D68002078C906C006090FC00EFDF747FE617816
:104D780020784909C0063140C00EFDF731FEA17800
:104D880020788907C006C90FC00EFDF71BFEA17861
:104D98002078C907C006C90FC00EFDF76DFE3C009C
:104DA800C2E70020704783680079022809D00428E8
:104DB8000BD001280CD1C9180B78DBB20020136086
:104DC8007047C9180B889BB2F8E7C9180B68F5E754
:104DD80016204042F4E70300F0B585B05F68019201
:104DE8003E790800F100FBF721FA03AA04000D0040
:104DF80081B23800FFF7D7FF002817D101220399A5
:104E0800EDB2AA400B00944693437D79019A9542EE
:104E180001D063460B43BA68022E09D0042E0CD089
:104E2800012E0ED1A4B2DBB2A418237005B0F0BDD8
:104E3800A4B29BB2A4182380F8E7A4B2A4182360F4
:104E4800F4E716204042F1E710B50122FFF7C3FF4F
:104E580010BD10B50022FFF7BEFF10BD70B50400ED
:104E68000D00FFF7F1FF002803D129002000FFF70C
:104E7800F0FF70BD030073B55E6808003179140057
:104E8800C900FBF7D3F901AA0D0081B23000FFF782
:104E98008AFF002809D1019BEDB2EB4001229A4319
:104EA800737959424B415340237076BD10B543681E
:104EB80010225B689C6920001040144202D11B68D4
:104EC8000B7010BD01204042FBE7202243685B685D
:104ED80098691042FCD11960704743685B681B6889
:104EE8001805C00F5A0501D5082210439A0501D5A7
:104EF80002221043DB0501D504231843704730B55F
:104F08002025436800205B689C692C4202D1141A52
:104F1800002C00DC30BD0C5C01301C60F4E730B5BF
:104F28001025436800205B689C692C4202D1141A42
:104F3800002C00DC30BD1C680C540130F4E7202242
:104F480043685B68996B0A4307219A635A6B8A43E3
:104F58005A637047202143685A68936B8B43936365
:104F6800704743685B68186C8006C00F7047102252
:104F780043685B68996B0A4338219A635A6B8A4382
:104F88005A637047102143685A68936B8B43936345
:104F98007047436800205B689A69120603D59B69CD
:104FA8000130DB089843704743685B68186CC0069B
:104FB800C00F704743685A68F823916BDB000B43B6
:104FC8009363704710B50400FFF7EEFF030001205C
:104FD800002B04D12000FFF7C4FF431E984110BDE9
:104FE8000120704703699960DA60704710B502695B
:104FF8009368002B01D0D168984710BD10B50022E6
:1050080003211420FCF718FD1420FCF7F9FC10BD4F
:10501800030010B508000822196900F069FA002099
:1050280010BDF0B5476885B07B68040006690021AB
:10503800B86803AA3D680193FFF75EFE002832DBDB
:10504800039B002219791868FFF769FE00282ADBFC
:1050580028003168FDF74CFD3060002825D08023FA
:105068005B00B380FD3BB371012200216068FDF74E
:1050780093F9C023019A9B012C32134310221A6022
:105088000023019A1360F379012B08D1C0222B6BFE
:1050980012029A43802330355B012B431A602000AB
:1050A8007B699847002005B0F0BD16204042FAE71A
:1050B80070B5436806000C00056909681868FDF7B3
:1050C800E9FC002802D11620404270BDA37962791C
:1050D80021797068FDF760F90028F4D106CC06C57F
:1050E800F3E70123D022834010B51206936205210D
:1050F8009361FDF73FFC10BD70B50024092688B008
:1051080005003200210001A8009400F0FAF93200ED
:10511800210005A8049400F0F4F94B236A46684678
:10512800137004A90D2200F0FBF9152108222800AC
:10513800694400F0DDF908B070BD7047002809D057
:105148000123C26800205178194202D010784242E7
:10515800504118407047EFF3108372B6FEE710B560
:10516800FFF7F9FF10B500F0CCF910BD10B500F04D
:10517800BFF910BDEFF30580431E9841C0B27047D8
:1051880058204042704710B5FEF762FB10BD10B5BD
:10519800EFF3108372B6FCF7BFFCF9E70E2210B5E7
:1051A800825600238A4202D0FEF7F6FA030018005E
:1051B80010BD002A07D08A4205D38160C260006012
:1051C80040600020704716204042FBE7012230B5BE
:1051D800140003688C401D00CB40A54305601800EF
:1051E800104030BD10B5002804D0002278301100DE
:1051F80000F0F7F810BD37B5EFF3108572B600234D
:105208000400032104380193103CFFF7DFFF002856
:1052180005D0A36A200001A90193FEF795F8002D97
:1052280002D162B6BFF36F8F37BD70B50D000400B1
:105238001022002100F065F9656070BD13B501907A
:105248000800EFF3108472B601A9FEF77DF8002C70
:1052580002D162B6BFF36F8F16BD10B5FFF7EEFF30
:10526800041E04DDEFF3108072B600F094F82000FD
:1052780010BD70B530220D000021040000F041F986
:1052880080235B006560E36070BD0368426813605B
:105298005A60002303604360704710B50400FFF7AD
:1052A800F4FF0222637B934363730023A36010BD62
:1052B80070B504000D00FEF7FFF90223627B13436B
:1052C8006373002D1CD0A5602B689D4209D16B68C3
:1052D800256063601C606C6012E06A689342F6D0D7
:1052E8001B68002BF3D00E220E21A25659568A4273
:1052F800F3D09142F1DD5A682360626014605C600B
:1053080070BD10B5EFF3108472B6FEF79FF9002C4C
:1053180002D162B6BFF36F8F10BD70B504000E00E6
:10532800EFF3108572B62823427B1A420ED18368A8
:10533800002B01D0FFF7B1FF0422637B002E00D0C1
:105348001422934320006373FEF780F9002D02D1E5
:1053580062B6BFF36F8F70BD10B501211838FFF723
:10536800DCFF10BD70B5EFF3108572B60468A0427B
:105378000FD0002C06D02000FFF78FFF2000183038
:1053880000F04DF8002D02D162B6BFF36F8F2000F8
:1053980070BD0024F6E710B5002805D1EFF30580AD
:1053A800002802D1FCF7CAFA10BD62B6BFF36F8FAE
:1053B800FAE710B5EFF3108072B6FFF7ECFF10BDF7
:1053C8000200C3170021632010B58018594100233B
:1053D8006422FAF7A9FFC117FEF7ECFA64235843D1
:1053E80010BD030070B5EFF3108572B60468002095
:1053F800A3420ED084420CD0E16662612000FFF720
:105408004CFF2000183000F00AF82000FEF71EF9C3
:105418000120002D02D162B6BFF36F8F70BD10B5A9
:10542800EFF3108472B60368002B08D0FEF7DCFB9C
:105438000020002C02D162B6BFF36F8F10BD16207A
:105448004042F6E710B5FEF7C7FC10BD0300EFF3C6
:10545800108272B6006841181960002A02D162B63B
:10546800BFF36F8F7047030010B50C33C36003613F
:10547800FEF7E4FF10BD030041188B4202D01A78F2
:10548800002A01D1181A70470133F6E770B58B78F6
:1054980004000D009B070CD54E68207800280AD020
:1054A8002900B04701340028F7DA0423AA78134307
:1054B800AB700120404270BDF8B5372614001F2399
:1054C80007000D00B61AF6B21C4038002100FAF7A2
:1054D800ADFE3A00CBB20700092901D9F318DBB2B7
:1054E8003033681C2B70944200D9F8BD0500ECE7F6
:1054F800002310B59A4200D110BDCC5CC4540133CE
:10550800F8E703008218934200D1704719700133FD
:10551800F9E700000148006870470000040800200F
:1055280001B40248844601BC604700BF91010020D5
:08553800C4AEFF7F010000007A
:10554000B91B0010000000001D3E0010000000000C
:10555000AB4D0010A85500102B500010D055001076
:10556000AD150010BC550010D52200100000000041
:105570004D24001000000000974B0010E45500106F
:105580003D17001000000000951B001000000000F7
:10559000413E001000000000991C001000000000B7
:0855A000D90C0010000000000E
:1055A8008558001054570010605700105C02002006
:1055B800000000005358001068030020D056001067
:1055C8005802002000000020A25800107057001058
:1055D800A05700105E0200201C0100207758001020
:1055E80028570010305700105A020020A40D002040
:1055F80000000000274900100000000027490010A3
:105608000000000027490010000000002749001092
:10561800000000002749001000000000951D001040
:105628000000000027490010000000002749001072
:105638000000000027490010000000002749001062
:105648000000000027490010000000002749001052
:105658000000000027490010E4550010292300101D
:105668000000000027490010000000002749001032
:105678000000000027490010000000002749001022
:105688000000000027490010000000002749001012
:10569800D0550010F54F00100000000027490010F9
:1056A80000000000274900100000000027490010F2
:1056B80000000000274900100000000027490010E2
:1056C80000C2010000000800F3480010091400108F
:1056D80000000000B5470010B9470010C9130010BA
:1056E800974800109D130010214700102B47001009
:1056F800711300103F4700100000000049470010D8
:105708000000000000000000514700107947001019
:105718007D47001009480010834700100C01002045
:10572800FFFFFF3F054C0010554C0010C34A001006
:10573800194C0010CF4A0010FB4A0010274B0010EC
:10574800A34B00103F4B00100000000000C00040B9
:105758000400000000C000407D4E0010514E0010B3
:105768005B4E0010654E00100040034000400340AF
:1057780088570010A85500101600000005500010AA
:105788009057001001000000985700100200000018
:105798004002000041020100B54E0010D34E001037
:1057A800E34E0010B950001019500010074F0010B8
:1057B800274F0010474F00105D4F00106B4F00102F
:1057C800774F00108D4F00109B4F0010B14F001005
:1057D800BD4F00108D230010CD4F0010E94F001071
:1057E800ED4F00100000000000000000F5FFFFFF73
:1057F80040550010405500107055001078550010A5
:10580800A8550010A855001048656C6C6F2066728A
:105818006F6D20746865205A657068797220436FCF
:105828006E736F6C65206F6E2074686520525069C6
:10583800205069636F2E2E2E0A00303132333435F2
:1058480036373839414243444546004344435F4173
:10585800434D5F3000757362776F726B71006162E0
:105868006F727428290A007573625F727069006725
:1058780070696F40343030313430303000726573C5
:1058880065742D636F6E74726F6C6C657240343022
:10589800303063303030000002017561727440347A
:1058A80030303334303030006D61696E002A2A2A76
:1058B80020426F6F74696E67205A6570687972202C
:1058C8004F53206275696C642065386635653039D8
:1058D8003334306138202A2A2A0A00737973776FA3
:1058E800726B7100617373657274696F6E206661A3
:1058F800696C65640A00286E756C6C29002A666CF0
:085908006F61742A0000000029
:105910000000000000000000000000000000000087
:105920000000000000000000000000000000000077
:105930000000000000000000000000000000000067
:105940000000000000000000000000000000000057
:105950000000000000000000000000000000000047
:105960000000000000000000000000000000000037
:105970000000000000000000000000000000000027
:105980000000000000000000000000000000000017
:10599000000000000000000000000000D400002013
:1059A000B400002000C20100000008000000000058
:1059B00000000000000000000000000000000000E7
:1059C000FF420010C028002000000000000000007E
:1059D00000000000000000000000000000000000C7
:1059E00000040000C02C00200000000000000000A7
:1059F00000000000000000000000000000000000A7
:105A00000004000055130010800000007D110010FC
:105A1000000000007D110010800000000000000068
:105A200033490010000000000000000000C2010027
:105A30000000000000000000000000002C01002019
:105A40002C01002010B5084A1378002B0AD18023BE
:105A5000064807495B051C68C45004338B42FAD1E1
:105A60000123137010BDC0463E0F0020EC0D001046
:105A70000001001010B5014B984710BDED0D00203E
:105A8000054B02301B6800025840C0239B001840A1
:105A9000024B18607047C0460C8001400C900140DA
:105AA000F0B51826142485B0029101903388264958
:105AB0002088170098473388244905002088984794
:105AC000039033882088224998470600002D04D08F
