:020000041000EA
:1000000000B5324B212058609868022188439860DF
:10001000D860186158612E4B002199600421596104
:100020000121F02299502B49196001219960352056
:1000300000F044F80222904214D00621196600F024
:1000400034F8196E01211966002018661A6600F04E
:100050002CF8196E196E196E052000F02FF8012189
:100060000842F9D1002199601B49196000215960AB
:100070001A491B48016001219960EB211966A021F2
:10008000196600F012F800219960164914480160C1
:100090000121996001BC002800D000471248134993
:1000A000086003C880F30888084703B5996A0420EC
:1000B0000142FBD001200142F8D103BD02B5186610
:1000C0001866FFF7F2FF186E186E02BD00000240BE
:1000D000000000180000070000035F00212200005C
:1000E000F4000018222000A00001001008ED00E03C
:1000F000000000000000000000000000070B8FD58A
:1001000008280020351B0010D5530010F11A0010EC
:1001100000000000000000000000000000000000DF
:10012000000000000000000000000000351C00106E
:100130000000000000000000C51B0010F12A0010A4
:10014000811D0010811D0010811D0010811D0010F7
:10015000811D0010811D0010811D0010811D0010E7
:10016000811D0010811D0010811D0010811D0010D7
:10017000811D0010811D0010811D0010811D0010C7
:10018000811D0010811D0010811D0010811D0010B7
:10019000811D0010811D0010811D0010811D0010A7
:0801A000811D0010811D0010FB
:1001A80002B4714649084900095C49008E4402BC02
:1001B8007047C046002934D00123002210B4884279
:1001C8002CD301242407A14204D2814202D209017E
:1001D8001B01F8E7E400A14204D2814202D249009F
:1001E8005B00F8E7884201D3401A1A434C08A04242
:1001F80002D3001B5C0822438C08A04202D3001BD8
:100208009C082243CC08A04202D3001BDC082243EE
:10021800002803D01B0901D00909E3E7100010BC2E
:10022800704701B5002000F05FF802BD0029F8D042
:1002380003B5FFF7C1FF0EBC4243891A1847C046F1
:10024800002941D010B404004C40A44601230022E8
:10025800002900D54942002800D5404288422CD3C5
:1002680001242407A14204D2814202D209011B01C0
:10027800F8E7E400A14204D2814202D249005B00BF
:10028800F8E7884201D3401A1A434C08A04202D327
:10029800001B5C0822438C08A04202D3001B9C0868
:1002A8002243CC08A04202D3001BDC0822430028CA
:1002B80003D01B0901D00909E3E710006446002CAC
:1002C80000D5404210BC704701B5002000F00CF882
:1002D80002BDC0460029F7D003B5FFF7B3FF0EBC37
:1002E8004243891A1847C0467047C0461C2101235B
:1002F8001B04984201D3000C10391B0A984201D301
:10030800000A08391B09984201D30009043902A2DE
:10031800105C40187047C046040302020101010145
:100328000000000000000000414208401C21012399
:100338001B04984201D3000C10391B0A984201D3C0
:10034800000A08391B09984201D30009043902A29E
:10035800105C401A7047C0461B1C1D1D1E1E1E1E29
:100368001F1F1F1F1F1F1F1F002B11D1002A0FD176
:10037800002900D1002802D00021C943080007B491
:10038800024802A14018029003BDC0465DFFFFFF6E
:1003980003B4684601B5029800F04CF8019B9E46EC
:1003A80002B00CBC7047C046D0400B00D1409C4600
:1003B800203AD3401843524263469340184370474B
:1003C8009140030090409C46203A93401943524282
:1003D8006346D3401943704710B5002903D1FFF78E
:1003E80085FF203002E00800FFF780FF10BDC046FF
:1003F800F7B5040C0D0091B20F0061438C4606005E
:10040800019383B2100C5F43444358433B0C604450
:100418001B18994202D98021490264180199554351
:100428007143180C04191B04BFB24919D8190919CA
:1004380003B0F0BDF0B506000F0015001C0085B034
:100448008B4263D801D1824260D821002800FFF78F
:10045800C3FF390000903000FFF7BEFF009B21006A
:100468001B1A1A0028000393FFF7AAFF00900191B6
:10047800B94245D801D1B04242D8009B019C012025
:100488000021039AF61AA741FFF79AFF04000D000E
:10049800039B002B2BD0019B009ADB0750081843C5
:1004A800019B5908039B9C46B9422CD801D1B04204
:1004B80029D832003B00121A8B41012692185B4161
:1004C8000027B6185F4101235B429C446346002B1A
:1004D800EAD130003900039AFFF766FF039AA4199E
:1004E8007D4106000F00FFF76BFF241A8D410A9B20
:1004F800002B01D01E605F602000290005B0F0BD10
:1005080000240025C4E7B6197F41DCE70024002554
:10051800EDE702780B78002A03D0013001319A42C6
:10052800F7D0D01A70470023C25C0133002AFBD1F0
:10053800581E704710B503000848026912689201F6
:1005480001D501225340002B05D08368DB68802148
:100558008904984710BD83681B69F8E76463001035
:1005680010B58024A4040548210083685B69984776
:100578000021034803F0C4FDF5E7C046646300109A
:1005880088130000F0B58BB001F0FCF94E484F4CD1
:1005980002698168136823401360802200240B6875
:1005A8009202192198472000099400F09DFCA0426E
:1005B80000D086E0FA240025A400099B002B20D057
:1005C80000260027424804F01CFA424804F019FAB1
:1005D800414804F016FA01F0BDF9040020003F4933
:1005E800FFF797FF002805D020003D49FFF791FF4E
:1005F800002813D10120FFF79DFF3A4804F001FAC3
:1006080054E0394883681B6D002B02D0042109AAE5
:1006180098472000290003F073FDCEE720003349F6
:10062800FFF777FF002805D020003149FFF771FF59
:10063800002804D10020FFF77DFF2E48DEE72000C8
:100648002D49FFF766FF2D4D002805D02900200011
:10065800FFF75FFF002832D1294804F0D2F92900BA
:100668002000FFF756FF002812D000220F24049222
:1006780002920192009280226442224B06960797CA
:10068800214922480394920002F0F8FE204B18609A
:1006980001F060F91F49FFF73CFF041E0AD11C4B0B
:1006A800186801F057FA2000FFF744FF1A4804F0D1
:1006B800A8F987E7194804F0A4F92C008EE7184830
:1006C8009CE720000BB0F0BD64630010FFFFFFFD46
:1006D80097650010CA650010FB65001015660010CC
:1006E800186600101B6600103C6300102566001099
:1006F800296600102D6600103866001090650010FD
:100708003E6600106905001008110020B0030020A3
:10071800C0060020736600109D6500107866001002
:100728008B66001010B5024B1B68984710BDC04679
:10073800B0000020014B18607047C046B000002090
:1007480030B585B004000D0010220021684605F080
:1007580099FD6A4602239370044B2A0021006846DB
:10076800019303F013FF05B030BDC0462D070010FC
:10077800F7B504000D001E00019203F0D9FC030038
:1007880005F088FD054F32003B5001992800A0472D
:1007980005F080FD385801F0DDF9C046080000007A
:1007A800F7B5FF270D4B0E4C5E6A0E4B0194019C6A
:1007B800A34202D3862040420CE05D68B5420AD3CA
:1007C8001C69002C07D0AD78AC4685883D40AC4507
:1007D80001D1A047FEBD2433E9E7C046C406002086
:1007E800AC03002088030020F8B505000E001700B0
:1007F800114C124B9C4202D38620404212E0104B0F
:1008080062685B6A9A4215D3A369002B12D091786B
:10081800FF208C46A98801408C4504D13A0031005C
:1008280028009847F8BD5279012A03D13A003100CF
:10083800280098472434DCE788030020AC03002014
:10084800C4060020F8B505000E001700094C0A4B35
:100858009C4202D3862040420AE06369002B01D102
:100868002434F4E73A003100280098470028F7D1EB
:10087800F8BDC04688030020AC03002010B5040072
:1008880004F044FE0300783301D0002807D120008B
:1008980004F02AFC024A136883430020136010BD49
:1008A8008807002010B508220021024805F0EAFC5C
:1008B80010BDC0467F07002030B50A4B0A4CA34242
:1008C80001D3002030BD1A7F196AD2005218914214
:1008D80001D12433F3E708310D1F2D788542F6D175
:1008E8000120EFE788030020AC03002010B5084C76
:1008F80023785B069B0F0A339B001B59181E05D0F3
:100908002000044A04499847C043C00F10BDC046A0
:10091800C4060020CC060020D4060020F0B585B01F
:1009280004000191042813D0012828D1204B1B78FA
:10093800002B24D000F0CAFD1E4E1F4B9E421BD236
:100948000025336A0293337FAB4204D82436F4E798
:10095800FFF7A8FFEAE7029BEF00DF19387904F0F8
:10096800D5FD0390387904F0BFFB144A136883431C
:100978001360039B002B0FDA00220D4B1A700D4DEC
:100988000D4B9D420BD30E4B1B6A002B02D020004F
:100998000199984705B0F0BD0135EDB2D3E7EB6892
:1009A800002B03D021002800019A98472435E7E757
:1009B8007D07002088030020AC0300208807002062
:1009C800C4060020F7B56B46C4B2DD1D0E002C70BE
:1009D800630609D02000FFF76FFF002811D0002020
:1009E8000C4B1B7883420CD020000B4F002E09D0F3
:1009F80001F062FCFB69002B02D02900082098470F
:100A08000120FEBD04F05EFDFB69002BF8D0290033
:100A18000920F4E77E070020C406002073B56B4662
:100A280086781E70437902791B0213436A46538005
:100A38000322C378300013406A46137104F054FB54
:100A4800174B05001B68174C03420CD0300000F010
:100A580023FD3000FFF712FF05F0FAF8002802D155
:100A6800963005F0B3FA684604F01CFD03007833AD
:100A780003D0002801D0002076BD6B46187801F01D
:100A880043FC0300783301D00028F4D1230001206F
:100A9800B933C434187023682B432360ECE7C0468D
:100AA80088070020C4060020F0B5AB4F0600BB69DC
:100AB8000C00150085B0002B18D13178C806C00E7F
:100AC800012800D178E0022800D1E6E0002820D1F2
:100AD8002A6873787F2931D9062B0CD0082B28D0A7
:100AE800002B16D113705370023311E19847002878
:100AF800E3D100200FE071880A0A131FD6B2012B38
:100B080007D9072A05D8CBB201937B6A1F78002F33
:100B180003D11620404205B0F0BD5978B14204D146
:100B28000199814200D1EBE00130DB19EEE71B7837
:100B3800EEE0BA373B7813700123E9E0052B11D0BA
:100B4800092BE6D173887C6A002B32D1FFF7AAFE05
:100B580039007388BA310B70FB69002BC9D00320A8
:100B68009847C6E7B07801F099FB0028C1D0D0E7D4
:100B78006378042B09D0052B11D0022B07D1657996
:100B88007388AB4203D1012001E0E3780193237815
:100B9800E4182378002BEBD10028BAD0D6E7738865
:100BA800AB42F4D1019B002BF1D12000FFF736FFB7
:100BB800EDE7FF250195ECE72B6802933B00BA337C
:100BC8001B78002BA5D0B388DAB294467A6A0192D2
:100BD8001578002D9DD050780390022803D1107904
:100BE800604500D996E05219F2E7029B1A705A70D4
:100BF800039B8DE001998A18019295E00B2A00D099
:100C080087E70024FF25039402950AE0019B5B789F
:100C1800042B14D0052B28D0019B019A1B78D318DC
:100C28000193019B1B78002BF0D1FB69002B02D0AC
:100C3800072003999847002C00D05AE769E7019BE1
:100C4800DB780293019B9D78B3889D42E4D1738839
:100C5800029A9A42E0D1019B00240393072DDBD826
:100C68007B19BB331A700134D6E7B388AB42D3D1B2
:100C7800B378029A93420BD0019B9C78200000F035
:100C88000BFC2000FFF7FAFD43425841C4B2C3E70A
:100C98000198FFF7C3FE0400BEE773787F2918D9CF
:100CA800002B00D035E736792D6873060AD030005E
:100CB800FFF702FE002800D12BE7BA373B78002B5C
:100CC80000D126E72900300004F011FC00236B70E6
:100CD8000AE7012B09D0032B00D01AE77388002BF1
:100CE80000D016E70121B08804E07188002900D0FF
:100CF8000FE7B088FFF766FE002800D0F9E608E79E
:100D08002B60022A00D012E79A78DB781B02134383
:100D18002360EEE672787F2900D86FE7002A00D1B9
:100D280063E70A2A00D0F4E6019A1278002A00D173
:100D3800EFE601994978042900D05BE701998978A1
:100D48008B4200D056E70022072B02D8FB18BB3392
:100D58001A78029B1A70EFE6C406002013B5154CEA
:100D6800237D002B1ED1E26801AB8020A16801928F
:100D780004F0CBF9019AA3689B18A360E3689B1A57
:100D8800E3600ED1002A0CD02069E388834208DD95
:100D98002300C8331978FFF79DFA002901D10123F0
:100DA800237513BD002180200B000A00217501F076
:100DB800D5FAF6E7C4060020002330B585B00D004B
:100DC8000193984257D1994236D10B000822280046
:100DD80002A904F0B3FB002804DA802001F06CFAC1
:100DE80005B030BD6B46294C029ADB892260039A14
:100DF80025756260264A2561A2606A46127AE56016
:100E080052B2002A0BDB802B04D9802001F054FA5F
:100E18000020E3E7002B02D02361E360E0E7FFF75F
:100E280065FD0028D9D02269E388934200DD1300CC
:100E3800E360FFF793FFD3E7144C01ABE268A168C6
:100E4800002A05DC020004F079FB0028C8DAC4E7B0
:100E580004F074FB0028D8DB019AA3689B18A360F0
:100E6800E3689B1AE360BBD1094BA360FFF73EFD23
:100E78000028DED1B1E78028B2D1044BDA68002A15
:100E8800D7D11B7D002BD4D1AAE7C046C4060020C9
:100E9800FC060020054B064A58629A62054A002063
:100EA800DA62054A1A63054A9A617047C406002047
:100EB800B10A0010A90700104D080010F107001032
:100EC80010B5084B1C78002C07D100F0D7F8002883
:100ED80006D0FFF7DFFF200010BD78204042FBE777
:100EE8000120FBE77C070020F0B5414D04006F6A44
:100EF80085B0404B0093009801225242D31702F06C
:100F0800C9FB2B00B8331E78002E00D068E03A48A1
:100F18002C62E86101F0BCF901F050F9041E2CDBE9
:100F280000F0F4FA041E28DB7B78012B5BD1FB79F7
:100F3800002B58D02A00C832137002AA1000538020
:100F48001671167004F0AEFA041E16DB802702AB89
:100F580018001F7004F0A6FA041E0EDB274B3000A1
:100F68001900019304F074FA041E06DB3800019995
:100F780004F06EFA224E041E0BDA009802F002FC0E
:100F8800200005B0F0BD0024376A337FA3421CD887
:100F980024361C4B9E42F6D3002001F0B5F9041EFE
:100FA800EBDB2E000127C436336880203B433360D7
:100FB80001F0AAF9041EE0DB802332685B021343C8
:100FC800B835002433602F70D7E7E300FB18187991
:100FD800196804F03DFA002807D10134E4B2D4E7D7
:100FE80078246442C9E71624FBE70124F9E7C046E0
:100FF800C40600206002002025090010C10D001061
:1010080088030020AC030020F0B58BB011221949E9
:1010180005A805F02EF91022002101A805F032F9E3
:10102800154C12220021200005F02CF9102101A8EE
:1010380004F0B8FB00281ADD082800DA0820083870
:1010480001AB1B180F2021000022844614276D468F
:10105800985CED190609AE5D654628406D46ED19A8
:10106800285C01320E7048700231082AEED1200047
:101078000BB0F0BDA8660010F0100020F0B56F4C62
:1010880089B06F4B019300231D00039302930093D3
:101098002378002B05D16B4B02349C42F1D1674871
:1010A80036E0607805281ED8FFF77AF89003C590D7
:1010B800203E002206AB1A70402306A908004B8088
:1010C8000A7104F0E0F900280AD0082306AA1000E3
:1010D800538004F0D8F9002802D0002206AB5A80C9
:1010E80006AB5B88E3712378E418D1E7E378002B3B
:1010F800F9D1A378002B0DD0029B0133DBB2029308
:10110800F1E76A68944208D024359D42F9D300205B
:1011180009B0F0BD4C4D4D4BF7E7AB68002BEBD059
:10112800200002999847E7E7002DF0D000272B7F91
:101138009F42ECD22A6AFB00D3180493A2781B7949
:101148009A4201D00137F2E701260322F3B2059350
:10115800E378134006AA1371637922791B021343BB
:1011680006AA5380A3787F2B22D93300012210339B
:101178009A401300019A1A4224D18023059A1343F6
:1011880006AA1000137004F07EF900281AD106ABE5
:101198001B78049AA37013715BB2002B0FDA01233A
:1011A800059F1037FFB2BB40019A1A4301929AE794
:1011B8000123B340019A1A4204D1F3B2E0E70123B4
:1011C800B340F1E70136102EBFD1BBE7039B032BD9
:1011D80019D1FFF719FF061E08D0FFF7A4F902007E
:1011E800102803D13100A01C05F043F82378E21839
:1011F8005B08E318911E121B032A15D5039B0133C4
:10120800DBB203936FE7039B002BEFD1009B002B0E
:1012180000D17CE7009AE31A93709BB21B0AD37043
:101228001300029A1A71E9E700224A701A78013B02
:101238000A700A00DEE7009455E7C046BC020020A9
:10124800010001008703002088030020AC03002070
:10125800094A0023110010B51478844205D1546856
:10126800002C02D09B01C81810BD01334032042B5A
:10127800F2D10020F8E7C04690070020F0B504003E
:101288002C3C63680500267885B0103311D1E36BD8
:10129800E268990734D5002A1DD11900043211409B
:1012A800134204D10B000A00300003F02EFF002384
:1012B8006360636810330CD0236967690093A3697E
:1012C800019304F0C5FC00283DD02900244804F00F
:1012D800A4FD05B0F0BD3000A16803AB03F015FF15
:1012E800002802D016235B42E2E7039AA3689B1802
:1012F800A360E3689B1AE36023699B182361D8E71E
:101308003000A16803AB01F07FF80028EAD1039F01
:10131800A368DB19A360E368DB1BE3602369DB19BF
:101328002361002FC3D0300004F01BF901003800FE
:10133800FEF77CFF0029BAD1E368002BB7D0300054
:1013480001F0AAF8B5E760612800103802F082FAC7
:10135800002FBED03000019A0099B847B9E7C046BF
:10136800200400204B1E73B506000D00012B0FD87A
:10137800FFF76EFF041E0CD1012D09D1694601ABA0
:1013880001223000033101F03FF8019B002BF5D119
:1013980073BD04F05DFC21002C31002801D0012D23
:1013A80003D10800FFF76AFFF2E7024804F035FDB1
:1013B800EEE7C04620040020F0B587B0060004918F
:1013C8000292039303F0E5FE00285AD1EFF310834D
:1013D80072B6070005932C4B019300220023019855
:1013E80002F05AFA00280AD1284BBA019C186568FD
:1013F8002900103114D1019802F02CFA07E0019B62
:10140800013740330193042FE7D10C256D42059B2A
:10141800002B02D162B6BFF36F8F280007B0F0BD72
:10142800D654049B2061A360029B3000E3600C9BB0
:101438006361039BE3630D9BA36110235B426360BD
:1014480004F08FF800280CD0300004F08AF801006E
:101458000298FEF7EBFE002903D00423E26B134346
:10146800E363039B9B0707D5094BB9010948C918D2
:1014780004F0D3FC0025CAE7300001F00DF80500A0
:10148800C5E710256D42C8E7AC070020900700208B
:10149800BC0700202004002010B5EFF3108472B6BA
:1014A800FFF7D6FE011E09D04368103306D18C23FE
:1014B8005B4243602C31044804F0AFFC002C02D19D
:1014C80062B6BFF36F8F10BD2004002070B50025F1
:1014D8000C4CEFF3108672B66368103307D18C2377
:1014E80021005B42084863602C3104F096FC002E12
:1014F80002D162B6BFF36F8F01354034042DE8D1B5
:1015080070BDC046900700202004002070B500255B
:101518000126084C2000084904F067FC200032002E
:1015280031001038013504F024FC4034042DF1D189
:10153800002070BDBC07002085120010054B01007B
:1015480010B5180003F010FE002802D00123073858
:10155800037010BD9008002010B5016901220B002E
:101568004B331A700B68002B08D00B0049331B78DB
:10157800002B03D00248083104F04FFC10BDC046D0
:101588002004002010B5036901211A004A321170A5
:101598001A68002A08D0190048331B780831002B34
:1015A80002D0024804F039FC10BDC04620040020D7
:1015B80070B5046923009E331B78181E14D02300CD
:1015C80000209F331B7883420ED1230048331870C4
:1015D800986C03F018FD2100050000220023034841
:1015E800183102F0B7FA280070BDC0462004002068
:1015F80073B56B460469DE1D230031709E331B787A
:10160800002B17D023009F331B78002B12D1220008
:10161800250048321370903531000122286803F004
:10162800F2FC011E07D021000A22002309481831C4
:1016380002F090FA73BD0122286803F034FD0028F7
:10164800F8D001223100286803F0DDFC0028EAD137
:10165800F0E7C046200400200300F0B58C331B6877
:1016680005005B6885B01B6A1E7D300003F091FDA4
:10167800071E1ED18022A86FD20003A903F0E2FC46
:10168800002816D02B0030331F703F2303405A42E6
:101698005341C41A2B00183B0193074B039900933D
:1016A800220002233000FFF787FE2100A86F03F015
:1016B800E5FC05B0F0BDC0465517001070B5060032
:1016C8000D0001791248140003F041FD00281BD0D9
:1016D800327873787F2A10D8202B03D0222B08D099
:1016E800862012E007222168103804F0C2FD00208D
:1016F80070BD738809380370F9E7212BF0D11038D1
:101708001A3B20602B60F2E713204042F0E7C04606
:1017180090080020030070B50025040048331D80A0
:1017280007220949943004F0A4FD230020009C33CB
:101738001D70013B1D70033329001D809D704022E0
:101748004C3004F09FFD70BD48640010130010B5C4
:1017580011001400012248331A7023680831002B45
:1017680007D023004A331B78002B02D0084804F026
:1017780054FB230090331B689A681B699A4206D071
:101788002100002200230248183102F0E3F910BDBD
:101798002004002010B5046900222300A433186037
:1017A8005A600B4A0433516800290DD15360136005
:1017B80020000849083004F018FB200006491830BA
:1017C80004F037FB002010BD0B605360F0E7C04603
:1017D80090080020CB5100106116001030B50B00A6
:1017E8000E4985B0019180218902029101A90B81DE
:1017F8000023046942689D342370126A084D1079E9
:101808000A2203F082FC2378002B05D10120013D38
:1018180001F0EAFC002DF6D105B030BDA120000092
:10182800A1860100F7B51600050014004C36002902
:1018380023DD17008C370A003868310003F0E3FB1A
:101848002300012249331A702368002B09D0230092
:101858004B331B78002B04D021000D48083104F0CD
:10186800DCFA3B685A685969DB69521A9B1A3F2BA4
:1018780003D80123A0342370F7BD064B4022009300
:101888003100012328000194FFF796FDF4E7C046D4
:10189800200400202D180010204B70B50D00010009
:1018A800180003F049FC041E29D006000368681ECE
:1018B8005B68A43E052822D8FEF772FC2221032289
:1018C800262AA51F2978002906D11B6A3200187B11
:1018D800FFF7A8FF01232B70230021005C3B1A7837
:1018E8009C39002A0BD101321A703368002B06D0BC
:1018F8005A3C2378002B02D0094804F08EFA70BDB8
:101908003000FFF707FFFAE70123053C2370F6E7ED
:10191800053C2378002BF2D00023F7E7900800203D
:101928002004002037B5012300258022064C0749F2
:10193800200000955B42D20002F0CEF82000044956
:1019480004F08CF928003EBD200400200813002074
:10195800C366001010B5084C2168002902D007485A
:1019680004F0FEF901225242D317054801F044FF62
:101978002060053010BDC046980800209C02002059
:10198800AC02002010B5074C0749200004F0E8F924
:101998002000064904F0E4F900222000044900F080
:1019A800B7FF10BD9C0200209C08002024090020DD
:1019B800AC02002030BFFDE7F0B5144B144C85B0E5
:1019C800070018190391013821000193FEF7F2FB73
:1019D800104E114D4443701929000138FEF7EAFBF7
:1019E80045432B190293029A039B0C499D1A280020
:1019F800019A04F03EFC28193200002104F042FC50
:101A08000298083D08307D6605B0F0BD0000000072
:101A180001000000040000000400000048640010F9
:101A2800044B99685869884202D00349034A0A60FE
:101A380070470000B410002004ED00E00000001022
:101A480070B5224B0C005B6888B0DB05DB0D62B615
:101A5800BFF36F8F0025160E2900FF2E09D1F33E24
:101A68001640082E05D001000135120701D52100C6
:101A780000250024032B14D18B69154A934202D305
:101A8800144A934206D3144A0024934209D3134AB2
:101A9800934206D2023B1A88114B00249A4200D185
:101AA8000C682022684604F0E4FB079B002D0AD04E
:101AB800DA0502D10B4A134307936946200003F065
:101AC8007BFC08B070BD5B0A5B02F5E700ED00E047
:101AD800A8010010B86200100000002000000020DB
:101AE80002DF0000FF010000EFF30880EFF3098137
:101AF80001B57246FFF7A4FF01BDC046F0B5C0248A
:101B080000220326FF25A40010002F003040C0004B
:101B18008740054993089B005B1819590132B9435E
:101B280019511A2AF0D1F0BD00E100E072B6074859
:101B38000749401880F30988EFF31480022108430D
:101B480080F31488BFF36F8F00F0C8F8081B0020DB
:101B58000008000010B50A4B9B6883420DD1EFF3D3
:101B68000583002B09D08022064B520559680A4389
:101B78005A605A6A04490A405A6202F0DFFA10BDF4
:101B8800B410002000ED00E0FF7FFFFF084A09497C
:101B9800936809689866D966802307495B05486891
:101BA80003434B6062B6BFF36F8F9368D86E70477C
:101BB800B41000207465001000ED00E015498A6833
:101BC80015481044EFF3098CF0C043464C4655467F
:101BD8005E466746F8C072B6104F114E4A698A6071
:101BE8003E60104C141920680F4C2060906E002342
:101BF8009366002800D162B6074C10191030F8C857
:101C08009846A146AA46B346BC462438F0C88CF389
:101C180009887047B41000203000000004ED00E08F
:101C28000000000864000000AC0900200420714690
:101C3800014202D0EFF3098001D1EFF308808169F6
:101C4800023909780229FFD001B503F0B9FB01BDBB
:101C580043B2000605D41F221A4001239340014ACB
:101C68001360704700E100E043B2000609D41F2268
:101C78001A4001239340034AD367BFF34F8FBFF342
:101C88006F8F704704E100E030B5FF2503220B0099
:101C9800290040B20240D20091405B012B40C94369
:101CA800934000280ADBC0240A4A80088000801874
:101CB800A40002590A401343035130BD0F221040BB
:101CC8000838054A800880008018C2691140194305
:101CD800C161F2E700E100E000ED00E0FF22084BFF
:101CE80010B59343074A9360BFF34F8FBFF36F8FCD
:101CF80001F0EEFA02F090FAFFF700FF01F02EFB78
:101D08000001001000ED00E010B5203A1360029BBE
:101D180001245360039B06499360049BA143D3604D
:101D280080235B04D361002391610265836610BD43
:101D380079070010074B9860074B406E1860101C1D
:101D480081F30988002162B6BFF36F8F0022002358
:101D5800FEF70EFDB4100020AC0900200149102246
:101D68000A60704710ED00E0BFF34F8F30BF62B6D6
:101D7800BFF36F8F7047C04601B5EFF30580054983
:101D8800401AC0000449014409C9984709BC9E4645
:101D9800024908471000000078630010291A001053
:101DA80010B5024B1B689847002010BDB0090020F1
:101DB800034B044A1860022391780B4393707047D1
:101DC800B00900200C01002010B5034802F019FEEC
:101DD800042062B602DFC046CC660010072310B5A7
:101DE8000449054A99430548521A03F085F800202A
:101DF80010BDC0468734002000200420B40900200C
:101E08000B4B0C4A70B51A600B4D0C4B0C4C2B60ED
:101E18001900A2689143FBD100F0C0FF094B2B6069
:101E2800A368DB43DB01D809002BF9D170BDC0469C
:101E380000E00040BFCDFFFF00F00040FE3F3C0047
:101E480000C00040FFFFFF010200802103008A4319
:101E580000200F2A08DC5AB20448002A00DA044895
:101E68002C228B435343C0187047C046C409002036
:101E7800840C002070B50500FFF7E6FF036A040034
:101E88001B685B0522D56DB201F092F8012812D9C2
:101E9800EA430123D20F93400D4A0E4913664A6E56
:101EA8001A409A42FBD1216A0B480A6802400A602C
:101EB8000A4A136604E0226A074913680B40136054
:101EC800002D03DA20000C3001F0C4FC70BDC046C0
:101ED8000020115000001150FFFBFFFF003011508F
:101EE800F0B589B00E2000240026002780220F4D6F
:101EF800404203900696079728000D4B0D4904941D
:101F0800029401940094D20001F0B8FA0A4928001A
:101F180003F0A4FE220003210520FFF7B5FE0520EB
:101F2800FFF796FE200009B0F0BDC046B0040020BF
:101F3800851F001008170020D566001010B5010095
:101F4800024C200001F004FB10BDC04674020020C2
:101F58001FB500246B461C71062302936B460022B2
:101F68001C7301A80023FFF7E9FF024B024A9C54A7
:101F78001FBDC046C00900208B050000F0B58025B4
:101F880001267642F71785B06D0011483B0001A97C
:101F9800320001F02BFB6B461979002910D01C7B0D
:101FA8002000FFF751FF0299002902D1094B0A4A84
:101FB8009D524368002BE8D02000C9B29847E4E757
:101FC800044B1B68002BE0D00298C0B29847DCE7AE
:101FD80074020020C009002084050000F0B56D4B94
:101FE80089B01C686C4B1C4206D06C4B6C4A9B5CDD
:101FF800002B01D0FFF7ACFFE3060AD50026012726
:10200800684B9B6D0193019B002B02D0202E00D0C2
:102018008FE0E30320D58022634B92021A6580206B
:10202800FFF728FF5D4D6B6A1B685B0502D5002032
:10203800FFF720FF01225D4B02A9EA54BB239B0056
:10204800EA5400232C350B752A70069305A80A73E9
:1020580000230022FFF772FFA30413D58022524BFE
:1020680052021A65002302A90B720B704D4B196DB1
:102078000223114200D0DB1803930022002302A898
:10208800FFF75CFFE3041BD580220025B026464BF2
:1020980012031A65434B464F1D60B60078192C355C
:1020A80001F0D8FBB542F9D1002302AA137201222C
:1020B800039202AA137002A800220023FFF73EFF32
:1020C80063040ED51022384B05A81A65002302AA0E
:1020D80013730522069202AA137500220023FFF744
:1020E8002DFF230405D580222F4B12011A65FFF717
:1020F8002FFFA30603D580222B4B12061A65630611
:1021080003D58022284B12051A65230603D58022A1
:10211800254BD2041A65E30503D58022224B92048D
:102128001A65A40503D580221F4B52041A6509B00D
:10213800F0BD019B3B422AD01B4B75109F650123C4
:10214800EDB21E4216D1002E09D1144B194A995CE2
:10215800002904D09E54184A9B5C124A13608023BD
:102168005B421D43EDB22800FFF76EFE0C3001F014
:1021780071FB0223012102AA1575117305A80693A4
:1021880000220023FFF7DAFE019BBB4301937F0087
:10219800013638E79800115010000100C0090020EE
:1021A8008B0500000000115000301150840500001C
:1021B800900C0020860500008A050000F8B58023F1
:1021C800264A5B041360264A264913601C008A6865
:1021D8009443FBD1244D9C222100280004F052F89E
:1021E800802221005201214804F04CF809236B6732
:1021F8000333AB670B3B2B6480239B05EB641C4AC2
:102208001C4B1D4E1D4D1E4F1A603B1F77626B61A4
:10221800002C1BD07C3B33621A4A043B2B61E30140
:102228009A18B262184A9B18AB6101222800110063
:10223800013403F09EFD08372C362C35102CE4D1E0
:102248008022124B52020020DA64F8BDBA210E4BEC
:10225800094A890093625350E7E7C04600E000400E
:1022680000F0004000C00040000011500000105075
:10227800F0F3010090001150C0090020900C0020DC
:1022880084001050400110500001105000201150DF
:10229800014B18607047C046C00900200121034B5C
:1022A800034A9954034A985400207047C0090020F3
:1022B800860500008A05000070B50400FFF7C4FD1C
:1022C800051E1CD080231B01620613D164B20D4A7F
:1022D800002C07DB02219166026A136001230020AB
:1022E800EB7070BD01219166026A13600020FFF750
:1022F800C1FDF3E7026A1360802CEFD1F6E71620E0
:102308004042EEE70020115010B50400FFF79CFD95
:10231800031E1ED08022210091430A0051424A41E7
:10232800016A52030A60C169002909D0406A9B7892
:10233800094A9B0642401343A022120613430B602E
:10234800002063B2834203DD4021200003F08CF8B3
:1023580010BD16204042FBE700001050F7B50600FC
:1023680014001D000191FFF76FFD002844D073B2DF
:10237800002B41DA802E0DD1214B224A9B5C002B89
:1023880005D0002D00D02C6000263000FEBD40276F
:10239800BC4203D80788A74200D927000C300400A4
:1023A8000022002301F078FA002827D103F050FC1E
:1023B800002802D10530FFF757FC30003A00019998
:1023C80003F016F8061E0ADB03F042FC002802D1CF
:1023D8000530FFF73DFC002DD7D02F60D5E7200052
:1023E80001F038FA03F034FC002802D10530FFF779
:1023F8002FFC05267642C8E71626FBE70B26F9E7E9
:10240800C009002084050000F7B506000F000092FF
:102418000193FFF719FD051E34D073B2002B31DB91
:10242800002E19D1194B1A4A9B5C002B14D0082492
:10243800002F0BD0009C082C00D908242200154935
:10244800380003F016FFAB681B19AB60019B002B2B
:1024580000D01C600020FEBD300003F067F8AA68B9
:10246800841A002FF2D0009B9C4200D91C00002E39
:1024780004D1064B06495B5C002BDFD1696A8918D9
:102488002200DDE716204042E5E7C046C0090020EB
:102498008505000000001050F8B50400FFF7D4FCD3
:1024A800061E32D063B2002B2FDB002C26D1184D2C
:1024B800184B194FEA5C002A0ED0FA88002A08D077
:1024C800B122D200AC52EC544021200002F0CCFFE3
:1024D80001E0EA540020F8BD200003F027F83B781B
:1024E8007F2BF7D8B122D200B168AB5AFE885B18AF
:1024F800B342EFD28842EDD1AB52E5E7200003F0BA
:1025080015F8B3688342E5D1DEE716204042E2E7DA
:10251800C0090020850500000000105010B50348D0
:102528008368DB6A002B00D0984710BD3C6300101D
:1025380010B50100024883685B68984710BDC04623
:102548003C63001010B5084803F066FB002808D06B
:10255800064C2000FFF72CFC2000FEF7EBF80020CB
:1025680010BD13204042FBE73C6300108755001064
:1025780070B5040008200D00FFF7DAFF002D06D122
:102588002020FFF7D5FF0820FFF7D2FF70BD0A48CB
:1025980002F037FA6519EDB2607820700134FFF760
:1025A800C7FFE3B2AB42F7D12020FFF7C1FF0348D2
:1025B80002F027FAEAE7C046DD660010E16600107F
:1025C800F0B585B0B64CA5686B6C002B17D0200011
:1025D8009847002813DD2B6C002B10D0200098475B
:1025E80000280CDD6B6B002B09D0200098470028D1
:1025F80005DBE7D0AB69002B03D1FFF78FFF05B0F0
:10260800F0BD02AAD71D39000122200098470028F2
:10261800F3DBA44E3368002B24D0A34C200003F036
:102628006EFD800700D4B3E033683D780093052140
:102638002000494203F072FD400726D52F00303FA5
:102648009A4E092F18D901233360482D4CD8422DB2
:102658004CD928004338052848D8FDF7A1FD5E4D20
:10266800477C476D924B18680022002301F0C4F89C
:1026780030600028D1D1C2E70821200002F07BFF9A
:1026880000228C4B37601A609CE7200003F037FD6E
:102698000123C0101842D8D02B00303B092B0FD88B
:1026A800200003F02CFD012300110A21814A184261
:1026B80000D17E4A13684B435B19303B136081E7B6
:1026C8003B2D0AD009212000494203F027FD1121A2
:1026D8002000494203F022FDB7E71021200002F054
:1026E8004AFFC006EED46DE77E2D3DD003212000C1
:1026F800494203F013FD65E76F486C4A0378116897
:102708008B42F3D36D4ECDB232785B1BAA1803709F
:102718006B48327002F075F9E8E76848634B027855
:1027280019688A42E2D3CBB2D21A0270624A107890
:102738001B1813706348EDE75F4D29780029D5D041
:102748005F4802F05EF95D4A137829785B181370C8
:1027580000232B70CAE7594D29780029C6D059485B
:1027680002F04FF9544AEFE7544D2B78002BBDD0B7
:102778000121544802F045F94F4B297800981B78FD
:1027880005300139C9B2C0182970FFF7F1FEADE76D
:1027980002212000494203F0C1FC012318420CD059
:1027A8003B785B2B00D00DE70221200002F0E3FE0E
:1027B8000421200002F0DFFE04E73D782B00203BD7
:1027C8005E2B58D9404B01930D2D0AD8072D1AD9E5
:1027D80028000838052816D8FDF7E2FC073C1E1526
:1027E80015221B2D13D07F2D0DD1334A1378002BC2
:1027F80009D0013BDBB213703068304A05331178D9
:10280800C018FFF7B5FE3B78019A1370DAE601218C
:10281800200002F0B0FEF6E7019B1B780D2BF2D0EA
:102828000024254D254A29783368009212785B18D0
:102838009B185C710D20FFF77BFE0A20FFF778FEDE
:10284800009B31681C70214B2C70186803F088FAC3
:102858003460D8E71E4B1B68002BD4D0174A127877
:10286800002AD0D1144C3068217805309847237855
:10287800C0182070C7E7114A0F4B17781C783A190F
:102888007E2A00DD9EE6326828000092621C1A70DB
:10289800FFF74EFE009B1B19002F1BD15D7191E6BF
:1028A8003C6300104C0F0020580F0020540F0020EC
:1028B800640F0020500F0020041100200311002095
:1028C800E5660010EB66001002110020600F002082
:1028D8005C0F0020009A5E790B4806345D7114196C
:1028E80002F08FF8013FFFB23000FFF721FE3300FE
:1028F800013FFFB2267823700134FF2FF4D103483B
:1029080002F07FF85EE6C046DD660010E166001062
:10291800174B37B51860174B1960174B1A60FFF73C
:10292800FDFD164CA5682B6A002B01D020009847A6
:10293800AB6C002B03D000222000114998476B6B29
:10294800002B04D1A3689B6A002B0DD137BD200052
:1029580098470028F6DDAB69002BF0D069460122C4
:10296800200007319847EAE720009847EEE7C0467D
:10297800640F0020600F00205C0F00203C630010F3
:10298800C9250010F7B50600002403690193E30880
:10299800144A08339B009B58072222409200D340D8
:1029A8000F22134203D101341E2CF0D1F7BD0F21A1
:1029B800200000F065FB019B59680029F3D001272E
:1029C800A7400D680029EED08B681A003A403B42B8
:1029D80002D030004B6898472B1E00D02B68290086
:1029E8001D00EFE700410140436803495A68936BB3
:1029F8000B4093637047C0463FF8FFFF10B5032BA9
:102A080023D8012A02D0032A1FD1013A02291CD84F
:102A18000468013A0E485B01D200415C1A43200069
:102A280000232C30994205D0023301391A434B4216
:102A380059418B001A436E23E16A4A401A408023A9
:102A48005B01034300201A6010BD16204042FBE7DB
:102A58001967001070B580251049114B8C681B68E8
:102A68000E6810488A686D02002C08D1002A11D11E
:102A78001A002E4209D100681818801A70BD002A61
:102A88000AD02E4201D1A242F5D90468E4180460A4
:102A98000968F0E71C00F4E71A00F2E710E000E02C
:102AA800840F0020800F00200020094A136A1B02AF
:102AB8001B0A1362074B084A1A60084B084A186039
:102AC800084B5A600722986019680A431A607047D1
:102AD80000ED00E0840F0020D4300000800F0020BB
:102AE800D330000010E000E0F8B50024FFF7B2FF93
:102AF8000F4E230031680F4D0A0028686968801856
:102B08005941286069600C4D34600C492E686F6823
:102B1800801BFDF74FFB0949230041430A00921926
:102B28007B412A606B6001F049FCFEF779FFF8BD34
:102B3800800F00202805002020050020D430000048
:102B4800F0B53B4B3B4D87B000295FD0421C08D104
:102B580001212A688A432A60FF2212061A6007B0F8
:102B6800F0BD1B68039300230293012853DCEFF3A5
:102B7800108372B60593FFF76DFF00221100AB6852
:102B880004932D4B1E685F6836184F41300039009A
:102B980018605960294B009601971A60284B1C68E9
:102BA800009B1B1B93423DDB264F0298264A784325
:102BB8008018C0183900FDF7FDFA009B7843E41A25
:102BC80080232018DB00984200D218001F4B98423F
:102BD80000D91800164B184918600138AB686860AE
:102BE8000020A860049AD41A9A421ED2039D621942
:102BF80003000C684D6812196B410A604B60059B15
:102C0800002BACD162B6BFF36F8FA8E71B680393A4
:102C1800431CA8D10E480F4B984200DD1800431EF4
:102C28000293A4E78020C000D4E72200E0E7C04672
:102C3800840F002010E000E028050020800F00200D
:102C480020050020D4300000D330000084C6FF00E7
:102C58003D0500003E05000070B5EFF3108572B623
:102C6800084A094B14681B68E41AFFF7F3FE0019B9
:102C7800002D02D162B6BFF36F8F0449FDF79AFAAF
:102C880070BDC0462805002020050020D430000073
:102C980070B5EFF3108572B6054B1C68FFF7DAFEC6
:102CA8002018002D02D162B6BFF36F8F70BDC046E9
:102CB80028050020F0B585B001920A9A05000F009A
:102CC800934201D201F056FC0C241A0E1B02039207
:102CD80002930A9A002302980399FDF745FB6C4377
:102CE8002C4B0600E4186368834200D260602B1FF7
:102CF800DBB20093C023009A9B012343012A1BD80F
:102D0800012F19D103221A60A3683B42FCD0019A13
:102D1800236852015A40E0231A4080235B01234371
:102D28001A60032122687A400A401A600123BB40D6
:102D3800A2681342FCD01AE0802212011A60164BD6
:102D4800AA00D158002905D05869FDF733FA013097
:102D58000138FDD1019A236852015A40E0231A40F4
:102D680080235B0123431A60009A012AD9D9802362
:102D780080229B01234312011A6002986660320088
:102D880000230399FDF7F0FA034CAD0060510120D0
:102D980005B0F0BD00800040880F002073B50C20FE
:102DA80000F0F6F800F0FCF800280AD000232C4ABE
:102DB8002C489900013350500A2BFAD12A4B536200
:102DC80073BD2A4DA86700F0CFF80122284B1A607E
:102DD8006B6C012BFCD10322264B1A60AC6B012CC7
:102DE800FCD102250526210000950623224A234806
:102DF80000F054F833002100214A2248009600F0E0
:102E08004DF8214B2900214D009300220420FFF7A3
:102E180051FF2B002100002230000095FFF74AFFE8
:102E28000022104C1100230000940720FFF742FFF6
:102E380000222300110000940820FFF73BFF002226
:102E4800094B1100009309202300FFF733FF0022EC
:102E58002B00110000950620FFF72CFFB0E7C046B5
:102E6800880F0020006CDC021BB7000000800040C7
:102E78003CB0004030B00040002F6859008002404C
:102E8800008C864700C00240001BB70040597307FA
:102E9800014B8000C0587047880F0020F8B5170014
:102EA80004000C201E000D00FDF784F9274BFA18CA
:102EB800274B9A4201D901F05DFB2649414338006E
:102EC800FDF778F902009823103A5B009A42F2D88D
:102ED800731E062BEFD8069B013B062BEBD8069BEF
:102EE80032041E0323681643002B0FDA3F2223689F
:102EF8001340AB420AD1A3681B051B0D834205D1C1
:102F0800EE22E368D2021340B3421BD0124B9C421C
:102F180019D080235B01114A11491360114A1360CB
:102F28001F008A689743FBD1C023221D9B011343CE
:102F380021222560A0601A602268002AFCDA082293
:102F4800E6601A60F8BD80239B01E4E780E84BD374
:102F580080F8A93240420F0000C0024000E0004063
:102F680000C0004000F00040AA22064B12011A607F
:102F78002F220549DA60054A11605A68002AFCDAEE
:102F88007047C0460040024000B0FA0000600240AE
:102F98008023024A9B000343D362704700800540A8
:102FA800024B18688007C00F7047C04600C0064033
:102FB800802310B5DB0518680649030B02059BB290
:102FC800120D8A4201D001F0D5FA022BFBD1000F75
:102FD80010BDC04627090000084B8200D2184023C4
:102FE80010B51468C0006340C024234080246401E5
:102FF80022431360024BC018416010BD04C0014059
:1030080000400140074B8000C0180368C9009200C7
:103018000A435A400C231A4080235B0103431A6079
:103028007047C04604C00140054B8000C01802220A
:103038008023002900D1C0239B0103431A607047F5
:1030480004C00140054B8000C018036859400123A3
:10305800194080235B0103431960704704C0014095
:10306800064B8000C01803680901594030231940F5
:1030780080235B01034319607047C04604C00140C8
:103088000722C308104080008140024A3C339B005D
:103098009950704700400140F8B5D0231B061C68C2
:1030A800050063425C412F2364429C430A4B0F0096
:1030B800E4181600FFF7E4FF07232B40ED089B00F8
:1030C800AD009F4064198023002E00D1C0239B01CE
:1030D80023431F60F8BDC04630410140054B8000C6
:1030E800C01840228023002900D1C0239B0103433C
:1030F8001A60704704C0014070B5060006200C0035
:10310800FFF7C6FE2100C000FDF754F80124C509E9
:1031180007D00E4B9D4215D87F23184000192C006C
:1031280045088023002274629B01B5622C36334324
:103138001A600620FFF7ACFEA10149198000FDF7CF
:1031480039F870BD0025024CEBE7C046FEFF0000D1
:10315800FFFF000070B5040006200D00FFF798FE81
:1031680000282ED0194B9C422CD08023DB03184A10
:1031780018491360184A136018008A689043FBD1F5
:10318800164B174AE31859424B4180215B0049000E
:10319800995220002900FFF7AFFF6023E26A21005F
:1031A80053406E22134080222C3152010A4313608F
:1031B8000C4B1022236380239B010B431A600323CB
:1031C800A36470BD80231B04D1E7C0460080034080
:1031D80000E0004000C0004000F000400080FCBF5C
:1031E800EC1000200103000070B5041E12D0FFF798
:1031F8004FFD0023084A050000212000FDF7F8F8DC
:103208000023064AFDF7B0F80400FFF741FD401B14
:10321800A042FAD370BDC0464059730740420F0020
:1032280070B5EFF3108572B6064B9C6802F005FD89
:10323800002D02D162B6BFF36F8F2000FEF78AFC23
:1032480070BDC046B4100020F7B50127124E8300A8
:1032580001309C5983000193019BF358A34200D885
:10326800F7BD65682368002D13D0002B0BD028000C
:103278009847002807D0C2178018EB685040FF28ED
:1032880000DDFF201870EA6853783B435370083418
:10329800E2E79847FBE7C0467865001010B50124BF
:1032A800094B03201C70FFF7CFFF01F02FF9042012
:1032B800FFF7CAFF00F00EF9FDF764F9034A137B24
:1032C800A343137310BDC04606110020A0050020BB
:1032D80010B5034A03480021121A02F0B1FC10BDD0
:1032E80008110020B0030020F0B570270F25040056
:1032F800474301021348012609180020802287B09D
:10330800039505356543104B0590029001900F48D1
:10331800FF182D18B24038000D4B0496009500F0A8
:1033280075F804227B7B2C7493437B73A419094B97
:10333800E402E418EF606C600748310002F0D2FE46
:1033480007B0F0BD0823002030050020B41000208D
:10335800735C0010081B0020B0100020F0B500209E
:10336800A3B0FFF771FF214B83F308882049214B55
:103378000A6A00251A40E0231B0413430B6202F07B
:103388002BF8FEF7EBFC02221B4E06ABFF329A81AC
:10339800B3601E9502F03FFC0120FFF755FF0220A5
:1033A800FFF752FF00F020FE144C154B7461802289
:1033B80005930123134E14490493D20033002000CF
:1033C800039502950195009500F020F80422070066
:1033D800637B20009343637302F073FD2800FFF7BB
:1033E80083FF320039002000FEF7A4FC08230020E8
:1033F80000ED00E0FFFF00FFB4100020A005002052
:103408002A670010A532001008240020F0B587B004
:103418000593030058338365C365109B072703731F
:1034280004230025437307320F9BBA4383738B1819
:103438000E0085601900C5738561C5610400049399
:10344800FEF7BAFA049BC019B8431F1A0E9B3A003C
:1034580002930D9B310001930C9B20000093059B68
:10346800FEF752FC044B65659B68AB4200D01B6EAF
:103478003800236607B0F0BDB410002070B5040012
:10348800002086B005900E98119D04900D98109E0E
:1034980003900C9802900B9801900A9800902000D5
:1034A800FFF7B4FF2B00721C01D1013305D02B00AC
:1034B800334305D1200000F02BFD200006B070BD7D
:1034C800200032002B000249183000F009FFF4E711
:1034D800215F001070B51B4C86B026001A4DAC4217
:1034E80007D300F05BFDAE4219D300F067FD06B0CC
:1034F80070BD636A0593236A0493E3690393A36920
:1035080002936369019323690093E368A268616881
:103518002068FFF77BFF23685C653034DEE7B26A1A
:10352800F36A511C01D1591C05D0110030681943A8
:1035380003D100F0EDFC3036D5E70449183000F02F
:10354800CFFEF8E74864001048640010215F0010BF
:10355800F0B50F00010085B0083104000391EFF3C6
:10356800108672B6006AE16888422CD2200002F008
:10357800D9FCA268051E0FD000243900406902F06A
:1035880078FE2800EC6602F09CFC0398310000F0FD
:10359800A9FC200005B0F0BD3900E06902F069FE21
:1035A800E369A2689B186269E361934201D12369C8
:1035B800E3610020236A01332362002EEAD162B658
:1035C800BFF36F8FE6E7110019430AD00649039845
:1035D80089684F61009231002200019300F024FCB9
:1035E800D8E723204042E8E7B4100020F7B50400EC
:1035F800270008000837EFF3108672B6216A002901
:1036080030D0A268A16902F034FEA369A2689B18B1
:103618006269A361934201D12369A361236A2000EF
:10362800013B236202F07EFC051E2BD0A268E069F4
:10363800696902F01EFEE369A2689B186269E3618A
:10364800934201D12369E361236A2800013323628D
:103658000024EC6602F035FC3800310000F042FC32
:103668002000FEBD110019430AD009498968486144
:103678000092310022003800019300F0D5FBF0E7FA
:1036880023204042002EECD162B6BFF36F8FE8E7EB
:10369800B4100020F0B585B004001F000392EFF3CA
:1036A800108672B6C368354A002B0ED080689168C0
:1036B800884217D0039B3B431AD1002E02D162B631
:1036C800BFF36F8F102040420AE09168897B49B2AE
:1036D8000133E36093682161A360002E04D00020C9
:1036E80005B0F0BD2169F3E762B6BFF36F8FF6E767
:1036F8000E23897BC35649B2994200DD19000A009E
:103708007F3201DA7F21494200258B4202DD02F037
:10371800B3FA05001A4B22000293039B310002986A
:103728000093019700F080FB0028D8D0EFF31086B3
:1037380072B6A068002819D0236821699C420BD072
:10374800002B09D09B7B5BB2994200DD19000B006E
:103758007F3301DA7F21494202F08EFA002805D032
:103768003100029800F0BEFB0B20ACE7002DF7D12A
:10377800002EF9D162B6BFF36F8FF5E7B4100020C1
:103788000711002070B583680400002B2AD0184A5E
:103798009268934229D1C368012B03D9013BC360C6
:1037A800002070BDEFF3108572B60169806802F0E1
:1037B80063FA200002F0B6FBA06000280BD00E23AD
:1037C800C35623610023C36602F07BFB2900094826
:1037D80000F088FBE4E7E060002DE1D162B6BFF3BA
:1037E8006F8FDDE716204042DBE70120FBE7C0468C
:1037F800B41000200711002037B5EFF3108572B61A
:103808000468002C13D003222368934342680360A2
:10381800944200D143602000012102F094FA040090
:10382800002D02D162B6BFF36F8F20003EBD11009C
:103838001943F5D00830009229000200019300F0E6
:10384800F3FA0028F1D1024B9B685C69EDE7C046AA
:10385800B410002070B50400EFF3108572B602F0C2
:1038680061FB002808D00023C36602F02AFB290068
:10387800084800F037FB70BDA268E3689B1A591E20
:103888008B419B18A360002DF5D162B6BFF36F8FF3
:10389800F1E7C0460711002013B50400EFF31081CB
:1038A80072B68068002808D00138A060002902D1CB
:1038B80062B6BFF36F8F002016BD1000184307D102
:1038C800002902D162B6BFF36F8F10204042F3E7A0
:1038D800009201932200024800F0A6FAECE7C046E5
:1038E80007110020F0B5050087B0EFF3108772B616
:1038F8002E002C6F8836002C13D10221300002F0E4
:1039080045FA00283CD100232A00029301235B4298
:10391800DC173900009301947832394800F06AFCCA
:10392800E3E723686A6F2B67944200D16B67022232
:103938003368134333600423E2689A43033B134319
:10394800E3606368002F25D020009847EFF31083C9
:1039580072B60593E36801211A008A4350080842A9
:103968001CD1E260022233689343059A3360DB0579
:10397800DB0F002A3FD0002BB7D100F03FFBB4E7A4
:103988002C00803400220121200002F030FB0028A6
:10399800F8D1B8E762B6BFF36F8FD5E70322934338
:1039A800E360184B18680028DCD0002703680493EC
:1039B8000028D7D0436802009C420ED10268114B00
:1039C800002F12D159681A60814200D15A60002331
:1039D80003600830FFF73EFF3A00049B002B00D03D
:1039E8001B68049817000493E2E73A605A68824219
:1039F800EDD15F60EBE762B6BFF36F8FBBE7C04600
:103A080007110020D4100020F7B5C3680D0059082D
:103A180001220F000400174011424BD19B081342AA
:103A28001DD12B68002B01D183682B600127E36827
:103A38003B4202D0A368FF192B602E68002E47D0A6
:103A48003200244B88329B680192B34222D0012174
:103A5800126893080B400A4204D113277F420023BF
:103A68002B6015E0002B25D1D3080B40002B21D16A
:103A780000232360736F002B27D1746734673000ED
:103A880002F090F90423E2681343E3602B68A36013
:103A98003800FEBD02F0DCF8019B01221B680028FB
:103AA8000AD1D90811401342D7D00029E0D09B0889
:103AB8001342DDD11027D1E7990811401342CCD029
:103AC8000029F7D1DB081340D0E71C607467D6E7FC
:103AD8001627C3E7B4100020F0B5040000202067C3
:103AE800606720002600783089B0A067E0678036DC
:103AF800201D0E9DC6670430C6670120002D07D023
:103B0800287946427041FF264042B0430230FF30D8
:103B180026008836306001267642F7170696079702
:103B280000260B4803930496030002962000019692
:103B38000094FFF7A3FCB54205D02968B14202D032
:103B4800200002F08BF8200002F08BF809B0F0BDDD
:103B5800ED38001073B50C000190EFF3108572B6C4
:103B6800CE680E2100200E4207D119001143814270
:103B780009D1200001A9FFF747FF002D02D162B645
:103B8800BFF36F8F76BD082120003143E1600199B2
:103B98001030A162024900F0A3FB0120EDE7C04606
:103BA800BF5D0010C289030000207F2A11D80A4A8D
:103BB800106800280DD00E21084A595612680020B6
:103BC800914206DB5A7BD20603D10548181A431ED8
:103BD8009841012318407047E4100020E0100020AD
:103BE800300500200121044B044AC01A044BC010C0
:103BF8004343D1547047C0461006002007110020E7
:103C0800ABAAAAAA70B518240C4B05001E7C0C4B55
:103C18007443E418200002F008FA0022094B280037
:103C28009A55FFF7BFFF002807D0074B20001A68F6
:103C38000649013AD31700F053FB70BDB4100020B9
:103C48001006002007110020E4100020ED3B0010B2
:103C580070B50E4D0E4BAC699C4201D0002C00D1C2
:103C6800EC68AB68002808D15A7BD20605D1A26956
:103C7800002A02D1DA897F2A05D89C4202D0200086
:103C8800FFF7C0FF23006B6170BDC046B410002071
:103C9800CC1000200D2270B582560400437B002A08
:103CA80004DA7F221340437302F0CFF88023627B4B
:103CB8005B421343134A637393691348834200D1E9
:103CC8000023D169002B04D1206061600C60D461AD
:103CD8000CE00E250E2665579E57B5420DD0AE4214
:103CE8000BDD5968236061600C605C609068001BA4
:103CF80043425841FFF7ACFF70BD9942E4D01B68BE
:103D0800E0E7C046B4100020CC1000200D2370B5A9
:103D1800C356417B002B26DBCB0624D18369002BBD
:103D280021D1802252420A434273114A114C9169AF
:103D3800A14200D00B00D169002B04D1046041607E
:103D48000860D0610CE00E250E2645579E57B542F7
:103D58000AD0AE4208DD5A680360426010605860BD
:103D68000020FFF775FF70BD8B42E7D01B68E3E7C3
:103D7800B4100020CC1000200D2210B5825604008B
:103D8800437B002A04DA7F221340437302F05DF874
:103D9800034B9868001B43425841FFF759FF10BD79
:103DA800B410002070B51D001600040002F060F881
:103DB8002B00721C01D1013306D0200032002B00E9
:103DC8000249183000F08CFA70BDC046215F00101F
:103DD80070B5EFF3108572B6104A114B94681868E5
:103DE800A04207D1FFF70EFF002D02D162B6BFF344
:103DF8006F8F70BD00211960127C0A4B9B5C8B424F
:103E0800F2D02000FFF7CEFE0028EDD0637BDB0662
:103E180002D12000FFF73EFF2000E3E7B4100020A6
:103E2800DC1000200711002010B509480C00094BD0
:103E3800110082681A60EFF3108372B6029A039B2E
:103E48008068FFF7AFFF2000FDF7A0FE10BDC04659
:103E5800B4100020DC100020F8B50400EFF3108740
:103E680072B6437B4EB2DA061BD18569002D18D194
:103E78007F221340437301F0E8FF8023627B5B429B
:103E880013436373154BA6739A6915498A4200D088
:103E98001500DA69002D0CD1216062601460DC61C4
:103EA80012E00020A673002F02D162B6BFF36F8F15
:103EB800F8BD0E20285686420BD0B04209DD6B684B
:103EC800256063601C606C600120FFF7C1FE012063
:103ED800E9E7AA42E0D02D68DCE7C046B41000202C
:103EE800CC10002010B500290AD1EFF30580002876
:103EF80007D1064B9A685B699A4202D0FDF746FEE5
:103F080010BD62B6BFF36F8FFAE7C046B410002049
:103F180010B5EFF3108472B60422437B134205D127
:103F2800002C02D162B6BFF36F8F10BD9343437369
:103F3800FFF7ECFE21000248FFF7D4FFF5E7C04683
:103F48000811002070B50400183002F06EF8EFF385
:103F5800108672B60D22A256637B002A05DA7F22EC
:103F680013402000637301F070FF10230A4D627B39
:103F7800A8681343001B637343425841FFF768FE68
:103F8800002E02D162B6BFF36F8FAB68A34201D196
:103F980002F003F870BDC046B4100020EFF31081A2
:103FA80072B6054B9A68D37B013BD373002902D1C3
:103FB80062B6BFF36F8F7047B410002010B5EFF3EF
:103FC800108472B6074B00209A68D37B0133D373F1
:103FD800FFF73EFE002C02D162B6BFF36F8F01F0EF
:103FE800DCFF10BDB4100020024B034A9A61DA616D
:103FF8007047C046B4100020CC100020F8B5EFF38D
:10400800108572B67F22194CA068437B1340437316
:1040180001F01BFF8022A3685242597B14480A43CF
:104028005A73A269824200D10022E169002A04D1B0
:10403800186059600B60E3610CE00E260E279E574E
:10404800D757BE420DD0B7420BDD51681A60596090
:104058000B6053600120FFF7FBFD2800FDF796FD7C
:10406800F8BD8A42E4D01268E0E7C046B4100020E8
:10407800CC1000200300F7B50B4304000D00002B03
:1040880003D1FFF7BBFF0020FEBD4B1C2EDB4B1CF2
:1040980001D1831C2AD301F0DBFF2718EFF310832B
:1040A80072B6144E0193B068134B1860FFF764FEA4
:1040B800B06822002B001149183000F011F91023C4
:1040C800B2680198517B0B435373FDF75FFD01F014
:1040D800BFFF00233A0004001D00121BAB41AB4296
:1040E80002DCD0D1AA42CED01000CDE702277F4211
:1040F8003F1BD3E7B4100020DC100020215F001024
:1041080010B50B000C00421C07D1013305D1074B39
:104118009868FFF717FF200010BD2100FFF7AAFFDE
:104128000A220023C117FCF71FF9F5E7B410002095
:10413800014B98687047C046B410002070B5040061
:10414800EFF3108672B6037BDB0708D5002E02D189
:1041580062B6BFF36F8F042062B602DF70BD08231A
:10416800427B1A4205D0002EF8D162B6BFF36F8F9A
:10417800F4E72021100088430100194348B20028C1
:1041880020DB6173A368002B02D0200001F065FEDC
:104198002000183001F049FF2300A56D58339D42D7
:1041A80001D0002D16D10120FFF752FD104B9B685E
:1041B800A342D8D1EFF30583002BD4D13000FDF70B
:1041C800E5FCD0E75F210A4013432000637301F048
:1041D8003CFED7E7280001F040FE2800183001F027
:1041E80024FF00232800EB66FFF790FDD4E7C046C4
:1041F800B410002073B5069D079E089C0095019693
:10420800FFF712FE002C03D0024B9B685B6923600A
:1042180076BDC046B410002010B50648064A0749C6
:10422800121A01F011FD064A0649074801F00CFD73
:1042380010BDC04600000020AC03002088670010B5
:10424800000000008867001000000020002010B562
:10425800034B1B68834201D1FEF7FEFC10BDC0462C
:10426800E810002070B50E4B1E689E4203D1FFF780
:10427800EDFF0C4870BDFFF7E9FF002EF9D0326959
:1042880073690400C517121BAB41002BF1DC03D185
:10429800802109068A42ECD2D843C0171040E9E7CA
:1042A8002C010020FFFFFF7F30B500280ED00B4BFC
:1042B8005B6898420AD00168002907D00A694B69EF
:1042C8000469456912196B410A614B6103684268C8
:1042D80013605A6000230360436030BD2C01002046
:1042E800F7B5040016001F00531C01D17B1C57D0E2
:1042F800A160EFF3108372B60193002F23DA7B1CC1
:1043080001D1B31C1FD82B4B18685968022252429E
:10431800D317121A8B41921BBB41002B04DC01D12D
:10432800002A01D101220023234F226163613D68E5
:10433800BD4200D100257E68002D0FD12760666040
:1043480034607C601CE0FFF781FF01220023921992
:104358007B410600C71792197B41E5E7286969691F
:1043680022696369994202DC1BD1904219D9801AEB
:1043780099416B6828616961636025601C606C60A5
:104388003B68BB4206D09C4204D1FFF76BFF00217B
:10439800FEF7D6FB019B002B02D162B6BFF36F8FED
:1043A800F7BD121A8B4122616361B542C6D02D68F0
:1043B800C2E7C046280600202C010020F0B585B0D1
:1043C800EFF3108372B60293304B1860304B1C68C1
:1043D8009C4200D100242F4B2C4D03931868596838
:1043E8002B689C46002C39D062692669DB179A42F3
:1043F80002DC0AD1664508D91F002269636966464E
:10440800921BBB412261636128E0F3170096019378
:10441800009A019B80185941002300221D4F2261F8
:104428006361386079602000FFF73EFF029B002B34
:1044380002D162B6BFF36F8F2000A3689847EFF3ED
:10444800108372B60293114B1A68921B1A60104BB4
:1044580094461C689C42BED1386879686246D31776
:1044680012184B41002403992C600A604B60FFF737
:10447800F9FE2100FEF764FB029BA34202D162B65B
:10448800BFF36F8FFFF7A4FC05B0F0BDE810002064
:104498002C0100202806002010B5EFF3108472B616
:1044A800FFF7D4FE02000649C31708684968801858
:1044B8005941002C02D162B6BFF36F8F10BDC046C0
:1044C80028060020F7B506000D00002401F0C0FB07
:1044D800A04208D10C4B9B681C6E002C03D02A1DEF
:1044E800043502D300242000FEBD042100273143F7
:1044F800002620000096019701F02EFE0028F1D03A
:104508000460041DEFE7C046B410002010B502484F
:1045180000F077FA10BDC0462F67001010B5064CA2
:10452800064B9C4201D3002010BD2000A2686168A0
:1045380001F00AFE1434F3E7600200206002002054
:1045480030B5094B85B0002402938022012302ADC7
:104558002C710649064800955B42D200FFF7BCFA69
:10456800200005B030BDC0465D6700100828002057
:1045780030060020034B10B51968034801F047FEC8
:10458800FDF722FCA464001066670010F0B54368CC
:104598008FB003900693837817009B0700D4F5E04B
:1045A800002301930D78002D6AD0252D0DD04B1CCA
:1045B8000793019B013301930399069BE8B298473F
:1045C800002800DADCE00799ECE74D788B1C0793AC
:1045D800252DEED0002304211C00079A0293059391
:1045E80007921F2C2ED82800203810280AD8FBF74D
:1045F800D7FD1D0909270909091E0909091B0925EC
:10460800090918002B00303B092B29D92A2D32D152
:1046180008CF600622D4002B29DB20200593044311
:1046280005E001231C4302E002231C430C43079BC3
:1046380001321D78002DD3D107922DE00823F1E730
:104648001023EFE77F2C1ED82B00303B092BDDD839
:10465800600605D50A20029D6843C3180293E6E761
:104668000A20059D6843C31805932023DAE75B42B7
:1046780005932823D6E72E2D05D140231C42D1D0FF
:1046880001980FB0F0BD6C2D2DD027D8682D31D0F2
:104698006A2D32D04C2D30D0029B002B03DA4023F8
:1046A8009C430023029320232B431A00653A022AD5
:1046B80001D9612B24D10725FB1DAB4308331F000B
:1046C800B24E240751D5019B019CEB180293029B23
:1046D800A3424CD1059B029C5D1B4BE1742DA6D0D7
:1046E8007A2DA4D0D8E780231C429BD0802080005C
:1046F800044397E780235B00F6E7A0239B0091E73C
:1047080028006338122800D9C2E0FBF749FD0A43A4
:10471800C1C1C1C143C1C1C1C1C1D1BDC1C10FC1A5
:10472800970004CF0BAE01253270CAE740CF002EA8
:1047380000D1974E0299630601D401214942300005
:1047480001F05AFD0500BCE720200399069B984715
:10475800002815DB013CA542F6D3059A019B944637
:1047680063441B1B01930594ADE7059CF3E7019B8C
:104778000399F31A185D069B984701340028A6DAB6
:10478800039B9A7804231343039A937001235B4293
:10479800019375E723062FD5A3052BD50722FB1D0B
:1047A80093431F0018680837102326009E430028EB
:1047B8002BDA8023DB001E434042B6B20A220BAC40
:1047C800210001F03AFD041B730652D50123320083
:1047D8009A431300029AA24200DC81E0002D7AD0AD
:1047E800102231001140099116427BD1029A1E0015
:1047F800049217E001CFD7E701CFE305D4D5A3058D
:1048080001D540B2D0E700B2CEE70028D6D1630682
:10481800D4D5029B002BD1D111339C43029B260097
:104828001C00049332005B4B1A4009921E425DD073
:10483800049B013304930023099357E010230A22B1
:104848009C43230639D5A30535D50721FB1D8B438A
:104858001F0018680837002838D1162326009E4301
:10486800630636D5029B002B33D117339C432600B1
:10487800029C102332001A4009921E4246D0631C43
:10488800002D32D022002FE0102278251443D8E7DB
:10489800782B03D110225B1B1A43D2E725200399FA
:1048A800069B9847002800DA6AE7019B023382E6F4
:1048B80008220025C5E701CFCDE701CFE305CAD51A
:1048C800A30501D5C0B2C6E780B2C4E706239C435E
:1048D80026000BAC74E711239E43029B0493A1E7C7
:1048E8001E00C6E71E00029A931C0493330724D4C3
:1048F800F30709D5059B049A0294934204DD9B1A99
:104908001B190293059B0493049B0AE0049489E70E
:1049180020200399069B9847002800DA30E7089B77
:1049280001330893089A059B9342F1DC049A019B92
:104938009B1A089A9B1801930492099B002B2BD071
:1049480030200399069B9847002800DA18E7019B56
:10495800002D11D101330193019E029B019A9B18EE
:104968009B1BA34226DC2500002D2BD1059B049A16
:10497800A4199D1A019438E002330193E8B203990F
:10498800069B98470028E7DAFAE6C0467F670010DA
:104998007867001006040000174B1E42DCD0202068
:1049A800B30700D50B30760500D52D20019B0133C8
:1049B8000193E4E730200399069B013698470028C5
:1049C800CBDADDE60BAB013DE85C0399069B984723
:1049D8000028C9DAD4E6019B20200133019303990A
:1049E800069B9847002800DACAE6019A63199B1AC1
:1049F800002BF0DCE7E5C046060400007047002005
:104A080070470FB407B504A901C90191FBF798FED7
:104A180003B008BC04B018478023C9004118806857
:104A28001B02984202D39200505870475200505AC5
:104A3800FBE710B58024C900411880682402A04211
:104A480002D39200535010BD52005352FBE710B5E9
:104A58000122FFF7E1FF400810BD10B58024C9000E
:104A68004118806801232402A04208D34868002A1C
:104A780002D003434B6010BD98434860FBE7488869
:104A8800002A02D003434B80F5E798434880F2E7B9
:104A980010B553000122FFF7CCFF10BD802210B5DE
:104AA800846804231202944200D3DB18C91A081A36
:104AB800C00810BD8022042310B51202904200D312
:104AC800DB180833DB080131C81AFBF70FFC1F237A
:104AD800181A10BDF7B51700032204000E00FFF7DF
:104AE8009BFF3B1D05000193864209D10122BA4074
:104AF800E36893430022E360019B9B001A51F7BDD2
:104B0800310002222000FFF787FF0600019B010009
:104B18009B0020001D5103222B00FFF78AFF330062
:104B2800022229002000FFF784FFE8E770B50D0096
:104B380004008668FFF78BFF802301001B029E425A
:104B480001D3012807D03000FFF7B4FF2900020085
:104B58002000FFF7BFFF70BDF0B5040085B0806886
:104B68000391FFF7A7FF8600A61933690190029306
:104B7800002B1CD00327356920002900FFF767FFA9
:104B8800039B984207D3019A29002000FFF7A2FF50
:104B9800280005B0F0BD032229002000FFF73CFFE4
:104BA800013F3061002F02D0029B8342E3D10122F2
:104BB800019B524201339A401300E26815001D40E0
:104BC8001A42E5D02800FBF7AFFB031D9B0002004B
:104BD8001D59D9E7F7B514000E000500FFF737FF98
:104BE800371BA31B3F181A00310028000193FFF759
:104BF8004FFF3A0028002100FFF74AFF2800019BD9
:104C080000222100FFF715FF21002800FFF71FFFF2
:104C18003B00211800222800FFF70BFFF7BDF8B56D
:104C2800150004000F00FFF712FF290006002000FE
:104C3800FFF70DFF3618320039002000FFF728FF74
:104C480029002000FFF703FF330029180022200065
:104C5800FFF7EFFEF8BDF8B50D0004008668FFF712
:104C6800F6FE802301001B029E4201D3012819D0C1
:104C78003000FFF71FFF8300E3181E69002E12D1D2
:104C880001218140E26820000A43E26029000222F3
:104C98001D612B00FFF7CDFE2B0003222900200009
:104CA800FFF7C7FEF8BD022231002000FFF7B4FE6F
:104CB80007000300022229002000FFF7BAFE330094
:104CC800032229002000FFF7B4FE2B00032239003D
:104CD8002000FFF7AEFE2B0002223100DFE7F8B517
:104CE8000C000500FFF7B3FE26180122310028004A
:104CF800FFF792FEC0070CD431002800FFF716FF1B
:104D080021002800FFF7A3FE210022182800FFF742
:104D180086FF002221002800FFF77EFE261A0122C6
:104D280031002800FFF778FE012307001F401842D2
:104D380013D131002800FFF7F9FE21003A002800BE
:104D4800FFF76AFE2200211A2800FFF768FF2100FA
:104D58003A002800FFF760FE241A28002100FFF718
:104D68007AFFF8BD70B500290DD005682800FFF757
:104D780095FE0400010000222800FFF76EFE2100C6
:104D88002800FFF7ACFF70BD70B50568002901D198
:104D9800002070BDAA68CB089A42F9D98020042463
:104DA8000002824200D3241907310C19E4082100BB
:104DB8002800FFF7D1FE061EEAD001002800FFF701
:104DC80046FEA04209D93419310028002200FFF715
:104DD80001FF21002800FFF73EFF012231002800D3
:104DE800FFF73BFE8022A9680423F00012029142DB
:104DF80000D3DB18C0182818CBE7F7B514000A0051
:104E08004B1E1A400192802205680E00AF681202FC
:104E1800194210D00421974200D3491872423240F7
:104E280013008A4200D90B00019E0192002C0ED17A
:104E38000023019309E00423974200D3DB189E4224
:104E4800F4D82100FFF7A0FF01900198FEBDE20809
:104E5800BA42EDD28020E11D04228919000287425E
:104E680000D39218C91A89182800C908FFF774FED8
:104E7800071EDDD08022A9680423C00012029142D7
:104E880000D3DB18019A31001018C0182818731EB7
:104E9800C018FBF78FF94643019B2800F31A190045
:104EA8000193FFF7FBFD019B06001C19072307343C
:104EB8009C43641BE410874208D202003900280092
:104EC800FFF788FE39002800FFF7C5FE31002800EB
:104ED800FFF7BDFD3018844208D2310028002200B7
:104EE800FFF778FE21002800FFF7B5FE0122310008
:104EF8002800FFF7B2FDA8E7F8B580230824DB02F5
:104F08009A4200D2043C07230027141BCD1D0C191C
:104F18009D439C43641BE408056021002000AC60AD
:104F2800EF60FFF7C7FD431D9B00DE1D3A00F60842
:104F3800013001DB103B1A0028000021103001F07D
:104F4800A1F9320028000021FFF7A2FD0023280064
:104F58001A001900FFF76DFDA71B28000122002188
:104F6800FFF77BFD3A0031002800FFF791FD330081
:104F7800310028000022FFF75CFD280021000022F4
:104F8800FFF786FD3B00280021000022FFF751FDB6
:104F9800280001222100FFF760FD31002800FFF7FB
:104FA8005AFEF8BDF0B50400C7684668C069F31B2F
:104FB800984201D81B1A3F186569751B451B954215
:104FC80000D91500C01AA84200D928002368F61B8A
:104FD8009B190B6063681B186360F0BD83684268A7
:104FE800D21A8A420CD35918C269C36881604160D9
:104FF800C91A8A4201D9002070479B18C360FAE792
:1050080016204042F8E7F0B50F001500002685B0DD
:1050180001902A0003A90198FFF7C4FF0400390092
:105028002200039801F025F936192D1B3F19002D90
:1050380001D0002CEDD131000198FFF7CFFF3000EF
:1050480005B0F0BDF0B5060010003769B269F56922
:10505800BC1AA54201D8641B5219B368DB1B8342F2
:1050680000D90300281B984200D91800BB1A3268DF
:10507800D3180B6033691B183361F0BD43690269AB
:10508800D21A8A420CD35918C269836941610161F5
:10509800C91A8A4201D9002070479B188361FAE730
:1050A80016204042F8E7F0B50D001600002785B03D
:1050B80001903200019803A9FFF7C4FF0400002DF6
:1050C80005D002000399280001F0D3F82D193F19E3
:1050D800361B01D0002CECD139000198FFF7CEFF28
:1050E800380005B0F0BD704703007022002013425D
:1050F8000AD1012108000F321A405BB29040002B00
:1051080002DA1032914008007047F7B516001F0008
:105118000425009001913B00320001990098FDF7A9
:105128001DF9030004000B3304D1013DFEF766FFAF
:10513800002DF0D12000FEBD0068002806D00438FC
:1051480003685B688B4201D04068F6E770470068E7
:10515800002808D0043803685B685B689B788B423A
:1051680001D04068F4E7704710B5006800280FD0F8
:10517800043803685B681A6A1B7FDB009B189A4235
:1051880001D14068F2E70832141F24788C42F6D126
:1051980010BD10B5FCF75CF8002804D0406810304A
:1051A80043425841C0B210BD10B5020004004B1C68
:1051B800DBB2083A2534817081762370C37691700A
:1051C80010BD030010B5083B9C301A685968006888
:1051D800904710BD002203694A331A70704703696B
:1051E80000201A004A321278824201D048331878D7
:1051F8007047002203694B331A70704703694933BB
:105208001878704703691A0048321278002A05D0C6
:105218001A004A3212780120002A06D11A004932AF
:105228001278101E01D04B33187870470120704750
:10523800036906C370470369022908D004290BD003
:1052480001290ED194331B680020136070479B33EB
:105258001B789B07DB0FF7E701219B331B780B407B
:10526800F2E786204042F1E70020704703690120F9
:105278001A00943212680A601A0098321278002ACA
:1052880003D0013A501E8241901C1A00487199328D
:105298001278501E032800D900229A330A711A780E
:1052A8000123062A06D0DB18072A03D00023052A83
:1052B80000D0033300208B71C871704710B50369A3
:1052C800402936D00FD810292AD006D8012917D05E
:1052D800082919D01320404210BD2029FAD19C3347
:1052E800042419781FE080246400A14225D02419E1
:1052F800A14226D08029EDD19C331024197812E0E0
:1053080094331A600020E7E701249C331978A143FD
:10531800002A00D0214319700121FCF75FFAF1E758
:1053280002249C331978A143002A00D02143197024
:10533800F3E79C3308241978F5E79C33202419787F
:10534800F1E79C3340241978EDE7F8B504690500C6
:1053580027008C373868FFF7A6FE3B6806001969F6
:105368009A68914203D12200002149321170270026
:10537800A0373A78002A14D05A685969DB69521A5A
:105388009B1A3F2B0DD923009E331B78002B06D088
:105398006B6822001B6A0021187BFCF743FA002384
:1053A8003B703000F8BD10B50122FFF7CEFF013881
:1053B800431E9841404210BD10B5FDF731FF10BDA6
:1053C80010B501000068FDF72BFF10BD10B5FCF704
:1053D800F1FAFCF725FB10BD704710B5002101203C
:1053E800FFF7EAFF10BD10B5FCF7DAFC002010BD8E
:1053F800F8B506000F001400FCF726FD036A76B224
:1054080005001B68002E1ADA402C1ED8002F04D085
:1054180022003900406A00F02CFF84231B021C4341
:1054280029002831087803005A1E9341012242407E
:1054380000200A702A6A5B0323431360F8BD8023A7
:10544800DB001C4300238360EAE70C204042F5E7B9
:1054580010B50C00FCF7F8FC002802D044600020CE
:1054680010BD16204042FBE743B20A0010B5002BDE
:1054780006DB402900D940220021FFF7B9FF10BD03
:1054880016204042FBE702790378002A01D15A0628
:1054980005D1702213405A1E93415842704701208B
:1054A8004042FBE710B504000078FCF7CDFC00286B
:1054B80005D06388038023798370002010BD1620EF
:1054C8004042FBE710B50400FCF7BEFC00280BD0F7
:1054D800640601D1002010BD026A1368DBB21360B4
:1054E8000023C3708360F5E716204042F3E710B548
:1054F8000C00FCF7A9FC002805D0002C03D0C378C9
:105508000020237010BD16204042FBE710B5FCF7C1
:105518009BFC002807D0C369002B02D01A68D2B2BE
:105528001A60002010BD16204042FBE710B5FCF7BA
:105538008BFC036A18688005800D10BD70B50500E6
:105548001600FCF761FF041E03D0162464422000F5
:1055580070BD002EFBD02800FCF79EFF0028F6D077
:10556800F3E710B5FCF770FC002801D0008810BDE7
:1055780016204042FBE710B500F0C3FD10BD10B582
:1055880004000A2802D10D20FCF7D2FFE0B2FCF794
:10559800CFFF200010BDD0231B065B6800200B60E6
:1055A80070470A0010B503691000196988430100A3
:1055B800D020000641611C6959692140114081626F
:1055C80019695B69114099434162002010BD0A00C6
:1055D80010B503691000196988430100D02000063E
:1055E80081611C69596921401140416219695B69EF
:1055F800114099438162002010BD036908001A69AF
:105608009043D0221206D0611B6900200B40D36260
:10561800704710B503695868002821D088421BD10B
:1056280008689C685860A14200D198600020086012
:10563800824206D05A680A609A685960002A00D1E6
:105648009960002010E0814206D1086820609868BF
:105658008142EBD19C60E9E7040000680028F2D1A0
:10566800002AE7D11620404210BD10B543685B6898
:105678009847002010BDF7B50D00076916000F21E7
:10568800002228001C00FDF707FD01221300AB4093
:10569800019380239B039E4205D1FB68019A9343A3
:1056A8000020FB60FEBD8023610EDB042340114017
:1056B800F6010DD58900002B01D0082319430122DA
:1056C8002800FDF7E9FCFB68019A1A431300E7E795
:1056D800002BF4D00223F1E710B5002203210D209E
:1056E800FCF7D2FA0D20FCF7B3FA10BD30B5046907
:1056F800D02000060369256953400B40AB430D00D9
:10570800C361036A53409D432B0025691D406369AB
:105718002B40C362036A5A400A40216963691140F9
:105728009943C162002030BDF8B515000F0001246F
:10573800520929090669214038002240FDF762FC18
:1057480005213800FDF748FCAB0325D5BC4032697C
:10575800A90715D522433261D0227169120668075C
:1057680007D52143716194616D0307D55462002008
:10577800F8BDA143716154612D03F7D49462F6E733
:10578800A2433261D0221206290301D55461EDE704
:105798006D03EBD59461E9E7ED03E8D5D022BC4071
:1057A8001206EBE773B505000C00EFF3108672B62E
:1057B800684600F00FFA002E02D162B6BFF36F8F71
:1057C800082C00D9082428002200694600F051FD61
:1057D800200076BD30B50368136005790468ED00D4
:1057E8006419A34202D30220404230BD5C798C4246
:1057F80001D00833F0E70020F7E7F8B504000126E8
:105808008D004519AC4201D10020F8BD2078271D34
:10581800C006C00E00F0D3F921882078C905C0065B
:10582800090FC00EFDF7D8FB61782078CA09C006B9
:105838004906C90FC00EFDF7E5FB61782078C90657
:10584800C006090FC00EFDF70BFC617820784909E6
:10585800C0063140C00EFDF7F5FBA1782078890716
:10586800C006C90FC00EFDF7DFFBA1782078C90775
:10587800C006C90FC00EFDF731FC3C00C2E700208E
:10588800704783680079022809D004280BD00128C2
:105898000CD1C9180B78DBB2002013607047C91807
:1058A8000B889BB2F8E7C9180B68F5E71620404249
:1058B800F4E70300F0B585B05F6801923E7908000F
:1058C800F100FAF7B3FC03AA04000D0081B2380016
:1058D800FFF7D7FF002817D101220399EDB2AA409C
:1058E8000B00944693437D79019A954201D0634613
:1058F8000B43BA68022E09D0042E0CD0012E0ED10B
:10590800A4B2DBB2A418237005B0F0BDA4B29BB258
:10591800A4182380F8E7A4B2A4182360F4E716209B
:105928004042F1E710B50122FFF7C3FF10BD10B5E3
:105938000022FFF7BEFF10BD70B504000D00FFF791
:10594800F1FF002803D129002000FFF7F0FF70BD08
:10595800030073B55E68080031791400C900FAF7CE
:1059680065FC01AA0D0081B23000FFF78AFF00280C
:1059780009D1019BEDB2EB4001229A437379594258
:105988004B415340237076BD10B5436810225B68C5
:105998009C6920001040144202D11B680B7010BD96
:1059A80001204042FBE7202243685B689869104267
:1059B800FCD11960704743685B681B681805C00F05
:1059C8005A0501D5082210439A0501D50222104331
:1059D800DB0501D504231843704730B520254368FB
:1059E80000205B689C692C4202D1141A002C00DC50
:1059F80030BD0C5C01301C60F4E730B510254368FD
:105A080000205B689C692C4202D1141A002C00DC2F
:105A180030BD1C680C540130F4E7202243685B68F1
:105A2800996B0A4307219A635A6B8A435A637047F2
:105A3800202143685A68936B8B439363704743688C
:105A48005B68186C8006C00F7047102243685B685B
:105A5800996B0A4338219A635A6B8A435A63704791
:105A6800102143685A68936B8B439363704743686C
:105A780000205B689A69120603D59B690130DB0830
:105A88009843704743685B68186CC006C00F70473E
:105A980043685A68F823916BDB000B4393637047A4
:105AA80010B50400FFF7EEFF03000120002B04D11E
:105AB8002000FFF7C4FF431E984110BD0120704726
:105AC80003699960DA60704710B502699368002B22
